:020000040800F2
:10000000B80A00209D010008CF220008D51E000874
:10001000CD220008A9020008392A000800000000CB
:10002000000000000000000000000000D3220008D3
:100030009903000800000000D1220008D522000822
:10004000B7010008B7010008B7010008B7010008B0
:10005000B7010008B7010008B7010008B7010008A0
:10006000B7010008B7010008B7010008B701000890
:10007000AD020008B7010008B9020008B701000886
:10008000C5020008D1020008B7010008B701000846
:10009000B7010008B7010008B7010008B701000860
:1000A0007D23000889230008B7010008B701000874
:1000B00095230008A1230008AD230008B70100081C
:1000C000B7010008B7010008B7010008B701000830
:1000D000B7010008E52800085D2900086929000823
:1000E000B7010008B7010008B7010008B701000810
:1000F000B7010008B7010008B7010008B701000800
:10010000B7010008B7010008B9230008B7010008CB
:10011000B7010008B7010008C5230008D123000873
:10012000B7010008B7010008DD020008B7010008A8
:10013000B7010008B7010008B7010008B7010008BF
:10014000B7010008B7010008B7010008B7010008AF
:10015000B7010008B7010008E9020008B70100086C
:10016000B7010008B7010008B7010008B70100088F
:10017000B7010008B7010008B7010008000000003F
:10018000B7010008B7010008DFF80CD000F07AF8DA
:1001900000480047C92A0008B80A002006488047DE
:1001A00006480047FEE7FEE7FEE7FEE7FEE7FEE75C
:1001B000FEE7FEE7FEE7FEE76D2300088901000881
:1001C0002DE9F05F0546002092469B46884606468C
:1001D000814640241BE0284641464746224600F01F
:1001E00041F853465A46C01A914110D31146184659
:1001F000224600F028F82D1A67EB01084F462246E8
:100200000120002100F01FF817EB00094E41201ECD
:10021000A4F10104DFDC484631462A464346BDE8E6
:10022000F09FD2B201E000F8012B491EFBD27047CB
:100230000022F6E710B513460A4604461946FFF7B2
:10024000F0FF204610BD202A04DB203A00FA02F11C
:10025000002070479140C2F1200320FA03F31943B4
:1002600090407047202A04DB203A21FA02F0002156
:10027000704721FA02F3D040C2F1200291400843B6
:1002800019467047064C074D06E0E06840F0010350
:1002900094E8070098471034AC42F6D3FFF778FF94
:1002A0005C2C00087C2C0008FEE70000014800F0F0
:1002B00093B9000090050020014800F08DB90000BE
:1002C000F0050020014800F087B90000D0040020AC
:1002D000014800F081B9000030050020014800F01D
:1002E0007BB9000010040020014800F075B900003F
:1002F0007004002001681823CAB2103AB2FBF3F26E
:10030000054B6FF30901032A9B5CC36500D9091DE6
:1003100081650846704700003B2C000810B5014677
:1003200000208B698A6A4FF0C07453B1B3F5005F47
:1003300015D072B1012A0CD0022A0AD0032A09D1A1
:1003400004E01AB1012A06D0022A03D1C96AC90100
:1003500000D5012010BDC96AA142FAD010BD002A03
:10036000F7D0012AF2D0022AF3D0032AF3D010BD2D
:1003700030B50468256825F480252560046863602D
:100380008368402B036803D099600068C26030BD69
:100390009A600068C16030BD704772B6FEE7000029
:1003A000002229B101291AD002291BD04FF4407232
:1003B0000E490B6823F440730B600B6813430B600A
:1003C0000A6822F0F8020A600A68022303EBC00000
:1003D00002430A60086840F48030086070474FF4B8
:1003E0008072E5E74FF40072E2E70000103C024043
:1003F0001348016889050FD5016821F40071016077
:10040000016841F400610160016821F4006101604C
:10041000016841F400710160016849050FD5016868
:1004200021F480610160016841F48051016001683C
:1004300021F480510160016841F4806101607047DE
:10044000003C024008490A6822F440720A600A68C7
:1004500042F004020A600A684FF4803343EA002045
:1004600002430A6070470000103C024017490868C8
:10047000C206174805D5C26942F01002C2611022B7
:100480000A600A68920605D5C26942F00802C26194
:1004900020220A600A68520605D5C26942F00402A9
:1004A000C26140220A600A68120605D5C26942F09C
:1004B0000202C26180220A600A68920705D5C269F9
:1004C00042F02002C2610220086070470C3C0240EA
:1004D0009806002070B5114904460020C86100F05C
:1004E00055FB06460E4D09E0601C07D024B100F014
:1004F0004DFB801BA04201D9032070BD2868C003BA
:10050000F2D42868C00701D001202860286810F0C4
:10051000F200F2D0FFF7AAFF012070BD980600207C
:100520000C3C02402DE9F0410446876D00F02EFBA3
:10053000064694F835000025022806D08020606524
:1005400084F834500120BDE8F0812068016821F072
:10055000160101602068416921F080014161206C31
:1005600008B9A06C20B12068016821F00801016081
:100570002068016821F0010101600BE000F006FB3A
:10058000801B052806D92020606504F8345F03200D
:100590006070D8E720680068C007EFD194F85C105D
:1005A0003F208840B86004F8345F0120607000206C
:1005B000C9E790F83510022903D080214165012058
:1005C0007047052180F835100068016821F00101AD
:1005D00001600020704700002DE9F84304464FF009
:1005E0000009CDF8009063484FF41651A56D0068DE
:1005F000B0FBF1F72E6894F85C10082000FA01F1C6
:1006000031420FD021680A6852070BD50A6822F0E0
:1006100004020A6094F85C108840A860606D40F0A5
:100620000100606594F85C104FF0010808FA01F0D1
:10063000304208D021684969090604D5A860606D78
:1006400040F00200606594F85C100420884030425D
:1006500008D021680968890704D5A860606D40F05A
:100660000400606594F85C1010208840304218D077
:1006700021680968090714D5A86020680168490342
:1006800004D50068000308D5A16C07E00168C9051E
:1006900003D4016821F008010160216C09B12046F2
:1006A000884794F85C1020208840304231D021687F
:1006B0000968C9062DD5A86094F83500052820687A
:1006C000016806D0490347D5006800031DD4616C5A
:1006D0001CE021F0160101602068416921F08001D1
:1006E0004161206C08B9A06C20B12068016821F03C
:1006F0000801016094F85C103F208840A86084F8ED
:10070000349084F83580216D1FE0E16B09B12046FB
:100710008847606D00282BD0606DC00714D005207D
:1007200084F835002068016821F00101016000981B
:10073000401C0090B84203D820680068C007F6D17A
:1007400084F8349084F83580E16C002910D001B031
:100750002046BDE8F04308470168C905D5D40168C3
:1007600021F01001016084F8349084F83580CCE7E2
:10077000BDE8F883180000202DE9F041044600F0A0
:1007800005FA06465CB1002584F83450022084F84E
:1007900035002068016821F0010101600DE00120B1
:1007A000BDE8F08100F0F2F9801B052805D9202072
:1007B0006065032084F83500F2E720680068C00710
:1007C000F0D12268116820480140D4E901031843A0
:1007D000D4E903363343184363691843A3691843C4
:1007E000E3691843236A18430843616A042903D163
:1007F000D4E90B1319430843106020684069666A06
:1008000020F0070130460E43012704280CD1A06ACE
:100810000643E06A40B12046FFF780FD20B140204A
:10082000606584F83570BAE7206846612046FFF7B6
:1008300061FD94F85C203F2191408160656584F8FA
:1008400035700020ACE700003F8010F02DE9F0414A
:100850000446866D90F83400002501280DD0012053
:1008600084F8340094F835700020012F07D084F804
:10087000340002252846BDE8F0810220FBE702276C
:1008800084F8357060652046FFF772FD94F85C10BF
:100890003F208840B0602068016841F01601016087
:1008A000206C20B12068016841F0080101602068D7
:1008B000016841F001010160DCE700002DE9F0472B
:1008C000044622480F46017E01290AD001218046B4
:1008D00001764CF250394846FFF7FCFD020003D088
:1008E0002FE00220BDE8F0874FF0FF30386020682D
:1008F000174D012801D0A6681CE0207C6168FFF735
:10090000A1FD4846FFF7E6FD0246286820F00400F6
:10091000286014E0217C3046FFF742FD4846FFF78F
:10092000D9FD0200286820F0FA00286001D03E605E
:1009300005E0761CD4E902100844B042EAD8FFF77B
:1009400057FD002188F818101046CBE798060020C4
:10095000103C02400348016841F000410160002062
:1009600070470000103C0240074900200A68002A36
:1009700009DA054A054B0C3A1360054B1360096808
:10098000002900DA01207047103C0240230167452E
:10099000AB89EFCD2DE9F84FDFF8B8A10022012592
:1009A0000AF1040B03264FF00F090BF1040E00BFF0
:1009B0000B6805FA02F42340A3426FD10F7907F0C8
:1009C0000307012F01D0022F16D187684FEA420892
:1009D00006FA08FC27EA0C07D1F80CC00CFA08FC50
:1009E0004CEA070CC0F808C04768A7430C79C4F369
:1009F000001494403C4344600C79E443A4070AD0BB
:100A0000C4684FEA420C06FA0CF7BC438F6807FA39
:100A10000CF72743C7600C7904F00304022C12D1B1
:100A2000D40800EB840CDCF820405707FF0E09FACD
:100A300007F824EA0804D1F8108008FA07F848EA11
:100A40000408CCF8208004684FEA420C06FA0CF740
:100A5000BC430F7907F0030707FA0CF72743076039
:100A60004C68E40070D53C4C276847F48047276009
:100A7000246822F0030704F480440094374C07EB09
:100A8000040CDCF8084897074FEA177809FA08F7CA
:100A9000BC43334FB84202D1002724E054E0314F29
:100AA000B84201D101271EE02F4FB84201D10227E1
:100AB00019E02E4FB84201D1032714E02C4FB84261
:100AC00001D104270FE02B4FB84201D105270AE0DE
:100AD000294FB84201D1062705E0284FB84201D17D
:100AE000072700E0082707FA08F72743CCF808781B
:100AF000DAF800405746D1F804C09C435FEACC3C8A
:100B000000D51C433C60DBF800405F46D1F804C0D0
:100B10009C435FEA8C3C00D51C433C60DEF80040FF
:100B20007746D1F804C09C435FEACC2C00D51C4327
:100B30003C60084F0C373C68D1F804C09C435FEA26
:100B40008C2C00D51C433C60521C102AFFF430AFA3
:100B5000BDE8F88F003C01404438024000300140BD
:100B6000000002400004024000080240000C024065
:100B7000001002400014024000180240001C024015
:100B80000AB1816170470904FBE7000001488068F1
:100B9000704700000C000020024881680278114470
:100BA000816070470C0000200B4810B5016841F4CB
:100BB00000710160016841F480610160016841F4E5
:100BC00080710160032000F08BF8002000F006F82F
:100BD00000F03EF8002010BD003C024010B5014678
:100BE00088B00022192000F05BF8192000F04AF8C4
:100BF00013480024016841F001010160006805A963
:100C000000F001000690684600F016F900F044F983
:100C10000C494000B0FBF1F10C480B4A491E026040
:100C200040F2E732C0E90324C0E9011400F074FB8C
:100C300010B1012008B010BD044800F031FCF9E704
:100C40004438024040420F0000000140500600209E
:100C50000B4882B0016841F480410160006800F4F3
:100C6000804000900648001F016841F080510160FB
:100C7000006800F080500090062002B000F030B80C
:100C800044380240002809DB00F01F020121914096
:100C90004009800000F1E020C0F80011704700001A
:100CA000F0B40E4B1B680C46C3F30223C3F10705D7
:100CB000042D00D90425191D072901D2002300E0C5
:100CC000DB1E012606FA05F1491E214099409E408F
:100CD000761E16403143F0BC01F0B8BE0CED00E0CA
:100CE000064900F0070208684FF6FF03184040EA83
:100CF0000220034A10430860704700000CED00E03A
:100D00000000FA052DE9F0470E46050065D0DFF832
:100D10001481D8F80000F7B200F00700B04207D203
:100D200088F80070D8F8000000F00700B04254D1F5
:100D300028683D4C810712D5400703D5206840F450
:100D4000E05020602878000703D5206840F4604018
:100D500020602068A96820F0F0000843206028780F
:100D6000C0072DD0304968680839012812D0022800
:100D700013D0032811D00968890700292DDA2168CA
:100D800021F0030101432160FFF700FF814641F29A
:100D9000883A0EE009688903EFE709688901ECE702
:100DA000FFF7F4FEA0EB0901514502D90320BDE88D
:100DB000F0872068696800F00C00B0EB810FEFD17C
:100DC000D8F80010404601F00701B14207D907707A
:100DD000006800F00700B04201D00120E7E7287862
:100DE000400705D52068E96820F4E05008432060FA
:100DF0002878000706D52068296920F4604040EA79
:100E0000C100206000F058F82168084AC1F30311BE
:100E1000515CC8400649086006480068FFF7DEFEDE
:100E20000020C4E7003C024008380240432C000880
:100E300018000020100000200F2202600C4A1368E6
:100E400003F003034360136803F0F0038360136847
:100E500003F4E053C36012684FF4E05303EAD20294
:100E600002610448006800F0070008607047000055
:100E700008380240003C02400448054900680968FF
:100E8000044AC1F38221515CC84070471800002019
:100E900008380240532C00080448054900680968D6
:100EA000044AC1F34231515CC84070471800002029
:100EB00008380240532C0008154810B5006810F09F
:100EC0000C02144813D04110042A0FD0082A0ED166
:100ED0000F4C241F2268236802F03F025B0207D5F3
:100EE0002068C0F38810A0FB010106E0084610BD91
:100EF0002168C1F38811A1FB00010023FFF760F90D
:100F00002168C1F30141491C4900B0FBF1F010BD5B
:100F1000083802400024F4002DE9F84F04006ED098
:100F20002078DFF84C93C007A9F104054AD009F1F5
:100F300004000168C1F38101012908D00068C0F3F1
:100F4000810002280AD1D9F80000400206D528689D
:100F5000800337D560680028E1D033E06068B0F5E1
:100F6000803F10D0B0F5A02F286810D020F480303A
:100F70002860286820F4802028606068A8B1FFF706
:100F800005FE06460DE0286840F48030F4E740F4A2
:100F900080202860F7E700BFFFF7F8FD801B64287A
:100FA00073D828688003F7D50CE0FFF7EFFD0646FD
:100FB00005E000BFFFF7EAFD801B6428F0D8286831
:100FC0008003F7D42078DFF8AC8280074FF0000A66
:100FD0003ED5A748001D016811F00C0F08D000682D
:100FE000C0F3810002280BD1D9F80000400207D4D9
:100FF0002868800716D5E068012800D112E033E1A7
:10100000E068B8B10120C8F80000FFF7BFFD064650
:1010100005E000BFFFF7BAFD801B0228C0D8286892
:101020008007F7D52868216920F0F80040EAC10060
:1010300028600DE0C8F800A0FFF7A8FD064604E010
:10104000FFF7A4FD801B02281FD828688007F7D46B
:101050002078000722D5864F87486169703771B1C3
:1010600001210160FFF792FD064604E0FFF78EFDC7
:10107000801B022809D838688007F7D50EE0C0F831
:1010800000A0FFF783FD064605E082E0FFF77EFD46
:10109000801B02287DD838688007F7D42078400765
:1010A00068D5DFF8CCB100270BF13C0BDBF8000072
:1010B000C0000BD4DBF8001041F08051CBF80010D9
:1010C000DBF80000012700F0805000906B4E306884
:1010D000C00510D4306840F480703060FFF756FDD2
:1010E000009005E0FFF752FD0099401A022850D801
:1010F0003068C005F6D55E4EA0686C3601280FD06A
:101100000528306810D020F001003060306820F0F1
:1011100004003060A068B8B1FFF738FD00900FE020
:10112000306840F00100F4E740F004003060F7E779
:10113000FFF72CFD0099411A41F28830814266D8B0
:1011400030688007F4D50EE0FFF720FD009007E03F
:10115000FFF71CFD0099411A41F28830814256D8B0
:1011600030688007F4D42FB1DBF8001021F08051F3
:10117000CBF80010A069C8B33D49091D0968C1F347
:10118000810102294AD00228504607D0C8F86000E1
:1011900000E03CE0FFF7FAFC04463BE04746C8F8B5
:1011A0006000FFF7F3FC064605E000BFFFF7EEFC2A
:1011B000801B02282BD828688001F7D4D4E90701C6
:1011C0000843A16A2E4A490802EB0141626A41EADA
:1011D0008211084394F82C1040EA0161C9F800100C
:1011E00001203866FFF7D2FC044606E03EE000BF6F
:1011F000FFF7CCFC001B022809D828688001F7D52E
:1012000034E000BFFFF7C2FC001B022802D9032014
:10121000BDE8F88F28688001F4D427E00128F7D0D2
:10122000D9F80000E26900F4800191421CD1226AE1
:1012300000F03F01914217D147F6C071626A014048
:10124000B1EB821F10D1A26A4FF0FF3300F440319E
:1012500003EB5202B1EB024F06D194F82C1000F0D0
:101260007060B0EB016F01D00120D1E70020CFE723
:101270000438024000004742800E474200700040A0
:101280000000FFFF7047704770B590F83C20012ABE
:1012900032D0012480F83C40022280F83D200368CF
:1012A0005A689D6822F070060A6832435A60134BF0
:1012B00002689A4214D0B2F1804F11D0104B9A427A
:1012C0000ED0104B9A420BD00F4B9A4208D00F4BC6
:1012D0009A4205D00E4B9A4202D00E4B9A4204D14C
:1012E000496825F080031943916080F83D40002152
:1012F00080F83C10084670BD022070BD000001401F
:101300000004004000080040000C004000040140C0
:10131000004001400018004010B5040003D094F8CC
:101320003D0010B107E0012010BD002084F83C0012
:10133000204600F01FF8022084F83D00211D20689F
:1013400001F04CF8012084F8460084F83E0084F84F
:101350003F0084F8400084F8410084F8420084F89B
:10136000430084F8440084F8450084F83D000020E0
:1013700010BD000008B501684248B1F1804F11D09E
:10138000414A91421DD1016841F0020101600068AB
:10139000002200F00200009011461D20FFF780FCA3
:1013A0001D2069E0016841F0010101600068002230
:1013B00000F00100009011461C20FFF771FC1C207A
:1013C0005AE0324A91420ED1016841F004010160B5
:1013D0000068002200F00400009011461E20FFF774
:1013E0005FFC1E2048E02A4A91420ED1016841F07C
:1013F000080101600068002200F00800009011461A
:101400003220FFF74DFC322036E0224A91420ED1C5
:10141000016841F0100101600068002200F0100036
:10142000009011463620FFF73BFC362024E01A4A94
:1014300091420ED1016841F0200101600068002254
:1014400000F02000009011463720FFF729FC3720DC
:1014500012E01248814213D10A48001D016841F48C
:10146000803101600068062200F480300090002185
:101470001820FFF715FC1820BDE80840FFF702BC54
:1014800008BD000040380240000400400008004051
:10149000000C0040001000400014004000400140DB
:1014A00090F83D10012901D001207047022180F8F9
:1014B0003D100168CA6842F00102CA600068114923
:1014C000884214D0B0F1804F11D00F4988420ED01D
:1014D0000E4988420BD00E49884208D00D498842F7
:1014E00005D00D49884202D00C49884204D1816858
:1014F00001F00701062903D0016841F001010160F4
:101500000020704700000140000400400008004037
:10151000000C004000040140004001400018004061
:1015200070B5044690F83C00012817D0012584F8D6
:101530003C50022084F83D002068826822F0770247
:1015400022F47F4282600868502830D00DDC2028C9
:101550004DD005DC98B310283BD148E0022070BD87
:10156000302844D0402834D139E0602828D0702871
:1015700006D0B0F5805F2CD0B0F5005F29D10AE02D
:10158000CB68D1E90121206800F08CFF20688168D8
:1015900041F0770109E0CB68D1E90121206800F032
:1015A00081FF2068816841F48041816011E0CA6850
:1015B0004968206800F088FF5021206807E016E0A5
:1015C000CA684968206800F090FF6021206800F038
:1015D00073FF84F83D50002084F83C0070BDCA6859
:1015E0004968206800F070FF40212068EFE722681A
:1015F00001461046EBE7704770B504460068016984
:101600004FF00005C943890715D4C168C94389074C
:1016100011D4E91E016101202077206880698007CC
:10162000204602D0FFF7E7FF04E000F098F82046DC
:1016300000F096F8257720680169C943490717D457
:10164000C168C943490713D46FF004010161022046
:1016500020772068806910F4407F204602D0FFF791
:10166000CAFF04E000F07BF8204600F079F8257707
:1016700020680169C943090716D4C168C94309072D
:1016800012D46FF008010161042020772068C0693E
:101690008007204602D0FFF7AEFF04E000F05FF8BD
:1016A000204600F05DF8257720680169C943C90626
:1016B00017D4C168C943C90613D46FF01001016182
:1016C000082020772068C06910F4407F204602D0AF
:1016D000FFF791FF04E000F042F8204600F040F8E8
:1016E000257720680169C943C90708D1C168C94382
:1016F000C90704D1891E0161204600F033F8206833
:101700000169C943090609D4C168C943090605D45A
:101710006FF0800101612046FFF7B4FD2068016988
:10172000C943490609D4C168C943490605D46FF0C5
:1017300040010161204600F049F820680169C94371
:1017400089060BD4C168C943890607D46FF020010C
:1017500001612046BDE87040FFF795BD70BD704740
:101760007047000010B5044600681449884201D152
:10177000FFF712FA1248844207D14FF6FF730F2287
:10178000104900F50E7000F009FB0D484830844206
:1017900011D10D48C179491CCAB20021C2710A2A6F
:1017A00004D18170C17001714171C17183790122CD
:1017B000012B01D0827110BD817110BD000001406C
:1017C000680000202C2C00080000002070477047A3
:1017D00010B504460068416994F83D20C1F3C0117A
:1017E000212A0BD151B1416921F080014161606B27
:1017F00008B1FEF797FE204600F024FF20684169FB
:1018000094F83E20C1F38011222A0BD151B14169D5
:1018100021F040014161A06B08B1FEF783FE204634
:1018200000F0F8FE002010BD70470000F8B5026817
:1018300004461068D168536910F00F0F4FF000058F
:1018400053D003F0010601F4907737435FD0C2070D
:1018500005D0CA0503D5226C42F00102226442077A
:1018600005D5DA0703D0226C42F002022264820717
:1018700005D5DA0703D0226C42F004022264020785
:1018800007D501F02002324303D0226C42F0080257
:101890002264226C002A34D0800604D5880602D542
:1018A000204600F0D8FE20684069216CC0F380100B
:1018B000090700D430B3204600F0ACFE206841692F
:1018C00049061BD5416921F040014161A06BA8B1D7
:1018D00059490165A06BFEF76CFE002811D0A06B82
:1018E000016D01B0BDE8F040084783060FD58B06B7
:1018F0000DD52046BDE8F84000F0ADBE2046FFF70C
:1019000093FFF8BD2046FFF78FFF2564F8BD266BD7
:101910002023012E53D1C60651D5CE064FD51068CF
:1019200050680090506940062BD5A16B086840684C
:101930000004000CEAD0A68D8642E7D9E085C8698C
:10194000B0F5807F18D0D06820F48070D060206817
:10195000416921F0010141612068416921F04001A4
:10196000416184F83E3025632068C16821F0100190
:10197000C160A06BFEF7D6FDA08DE18D401A81B24B
:1019800019E0A08DE18D401A81B2E08D0028BDD014
:101990000029BBD0D06820F49070D06020684269E4
:1019A00022F00102426184F83E3025632068C2685B
:1019B00022F01002C2602046FFF709FFF8BD0506BD
:1019C0002BD50D0629D594F83D002128F6D1A06825
:1019D000B0F5805F01D12069B0B1206A411C21625D
:1019E000216800784860E08C401E0004000CE08410
:1019F000E4D12068C16821F08001C1602068C1681D
:101A000041F04001C160F8BD206A0088C0F30800C1
:101A10005060206A801C2062E5E74006F3D5480646
:101A2000F1D5D168204621F04001D16084F83D30E5
:101A300000F04EFAF8BD00000F25000870B5040054
:101A400004D094F83D00002510B106E0012070BDDF
:101A500084F83C50204600F023F8242084F83D0010
:101A60002068C16821F40051C160204600F04AFEA0
:101A70002068016921F4904101612068416921F0E9
:101A80002A0141612068C16841F40051C1602564A8
:101A9000202084F83D0084F83E00002070BD000046
:101AA0002DE9F04F87B0054614216846FEF7C0FBCC
:101AB000A148DFF880820221D5F800C00322072365
:101AC000DFF878E200248E0607154FF04009C44580
:101AD00062D1DFF864C20CF1140CDCF8008048F02D
:101AE0001008CCF80080DCF800C00CF0100CCDF829
:101AF00014C0D0F800C04CF0010CC0F800C0006861
:101B000000F00100059050028DE813006946704610
:101B1000CDE90323FEF73EFFDFF8288288494046DF
:101B2000C8F80010C0E90164C0E90347C8F81440D0
:101B3000C8F81840C8F81C40C8F82040C8F824402D
:101B4000FEF71AFE08B1FEF728FCC5F83880C8F881
:101B50003850DFF8F4817A4940467831C0E90347CC
:101B6000C8F81440C8F81840C8F81C40C8F820400D
:101B700088E84202C8F82440FEF7FEFD08B1FEF7EF
:101B80000CFCC5F83480002211462520C8F83850D6
:101B9000FFF786F8252063E0DFF8B081DFF898B121
:101BA000C4450BF1100B60D1DBF80080A24648F46D
:101BB0000038CBF80080DBF800C00CF4003CCDF816
:101BC00014C0D0F800C04CF0010CC0F800C0006890
:101BD00000F0010005900C208DE813006946704666
:101BE000CDE90323FEF7D6FEDFF868815849404669
:101BF000C8F80010C0E90164C0E90347C8F8144000
:101C0000C8F81840C8F81C40C8F82040C8F824405C
:101C1000FEF7B2FD08B1FEF7C0FB4D484E4CC5F8CB
:101C200038801830C8F8385084E84102C4E903A766
:101C3000C4F814A0C4F818A0C4F81CA0C4F820A0CC
:101C40002046C4F824A0FEF797FD08B1FEF7A5FBD7
:101C50006C63002211462620A563FFF721F8262099
:101C6000FFF710F807B0BDE8F08FDFF8F080C4454B
:101C7000F8D1DBF8008048F48028CBF80080DBF84E
:101C800000C00CF4802CCDF814C0D0F800C04CF08B
:101C9000020CC0F800C0006800F0020005904FF48C
:101CA00040608DE8130069462D48CDE90323FEF717
:101CB00071FE2749DFF8AC8060394046C8F8001053
:101CC000C0E90164C0E90347C8F81440C8F81840E7
:101CD000C8F81C40C8F82040C8F82440FEF74CFD66
:101CE00008B1FEF75AFBC5F83880C8F83850DFF85D
:101CF0007880174940463039C0E90347C8F8144096
:101D0000C8F81840C8F81C40C8F8204088E84202CB
:101D1000C8F82440FEF730FD08B1FEF73EFBC5F8D9
:101D20003480002211462720C8F83850FEF7B8FF4B
:101D3000272095E7001001403038024000000240A3
:101D40004064024010040020700400200044004061
:101D500088600240D0040020300500200048004088
:101D60000004024090050020F005002090F83E306D
:101D7000202B0ED159B152B190F83C30012B08D034
:101D8000012380F83C300023036300F041BD0120B3
:101D90007047022070477047704700002DE9F843F4
:101DA000044690F83D001F4616460D4620284CD1AB
:101DB000C5B1BEB194F83C00012846D0012084F89A
:101DC0003C004FF00008C4F84080212084F83D001A
:101DD000FEF7DCFEA6848146E684A068B0F5805F4D
:101DE00003D004E00120BDE8F883206928B12E4625
:101DF0005FF0000584F83C800EE00026FAE78021C1
:101E0000204600F03DFDA0B9AEB116F8010B2168E7
:101E10004860E08C401EE084E08C4B464FF00002AE
:101E200000970028EBD14FF04001204600F028FD3C
:101E300030B10320D7E735F8020BC0F30800E6E71E
:101E4000202084F83D000020CDE70220CBE70000F1
:101E500070B5044690F83D00202830D169B362B3D4
:101E600094F83C0001282AD0012084F83C0021622B
:101E7000A284E28400252564212084F83D00636B60
:101E80001048D863636B10481864636B0F48D864BC
:101E9000606B134605652668606B321DFEF7D6FC45
:101EA00021686FF04000086084F83C502068416968
:101EB00041F080014161002070BD012070BD022011
:101EC00070BD0000DD2500080B2600081F25000856
:101ED00070477047FEE70000214808B5016841F4EB
:101EE00000110160016801F400110091016841F4E2
:101EF000800101600068002200F48000009011461B
:101F00000C20FEF7CDFE0C20FEF7BCFE0022114691
:101F10000E20FEF7C5FE0E20FEF7B4FE002211468D
:101F20001020FEF7BDFE1020FEF7ACFE0022114689
:101F30001120FEF7B5FE1120FEF7A4FE0022114687
:101F40003A20FEF7ADFE3A20FEF79CFE0022114635
:101F50004620FEF7A5FEBDE808404620FEF792BEEB
:101F60003038024070B586B014216846FEF760F93B
:101F70001E480024016841F004010160016801F07D
:101F800004010591016841F020010160016801F040
:101F900020010591016841F080010160016801F0B4
:101FA00080010591016841F001010160016801F0C3
:101FB00001010591016841F00201016000680C4EC9
:101FC00000F002004FF4C06505900022294630461B
:101FD000FEF7D6FD01200095CDE9010469463046A3
:101FE0000394FEF7D7FC06B070BD00003038024005
:101FF0000014024010B586B00024174800940194E4
:102000000294039404944FF080410594016040F2DF
:102010004731C0E9011440F2E731C0E9031484619B
:10202000FFF77AF908B172B6FEE74FF480500090DE
:1020300069460948FFF774FA08B172B6FEE70494DE
:1020400004A905480594FFF71FF9002801D072B6CE
:10205000FEE706B010BD00002000002010B586B0DD
:1020600000241748009401940294039404941349A3
:102070000594016040F24731C0E9011441F2873113
:10208000C0E903148461FFF747F908B172B6FEE7AF
:102090004FF48050009069460948FFF741FA08B1B3
:1020A00072B6FEE7049404A905480594FFF7ECF81E
:1020B000002801D072B6FEE706B010BD0004004053
:1020C0006800002010B586B00024174800940194E1
:1020D00002940394049413490594016042F2CF01E1
:1020E000C0E9011442F20F71C0E903148461FFF7E3
:1020F00013F908B172B6FEE74FF4805000906946BC
:102100000948FFF70DFA08B172B6FEE7049404A976
:1021100005480594FFF7B8F8002801D072B6FEE72D
:1021200006B010BD00080040B000002010B586B019
:1021300000241748009401940294039404941349D2
:102140000594016042F2CF01C0E9011442F20F711F
:10215000C0E903148461FFF7DFF808B172B6FEE747
:102160004FF48050009069460948FFF7D9F908B14B
:1021700072B6FEE7049404A905480594FFF784F8B5
:10218000002801D072B6FEE706B010BD000C00407A
:10219000F80000201FB50021114800910191029123
:1021A0000E4A0391026040F24732C0E9012141F238
:1021B0008732C0E903218161FFF7AEF808B172B63A
:1021C000FEE74FF48050009069460548FFF7A8F9F4
:1021D000002801D072B6FEE71FBD0000004001409C
:1021E000D001002010B5114C0F480C2120604FF495
:1021F000E13060600020A060E060C4E90401A061FB
:10220000E0612046FFF71AFC08B172B6FEE72068CD
:10221000C16841F01001C16004496422BDE810406A
:10222000CC310248FFF7A2BD001001401802002087
:1022300010B5114C0F480C2120604FF4E130606064
:102240000020A060E060C4E90401A061E0612046D4
:10225000FFF7F4FB08B172B6FEE72068C16841F0F1
:102260001001C16004496422BDE81040EC3102480D
:10227000FFF77CBD004400405C02002010B5114C0B
:102280000F480C2120604FF4E13060600020A06016
:10229000E060C4E90401A061E0612046FFF7CEFBE5
:1022A00008B172B6FEE72068C16841F01001C16054
:1022B000BDE81040642204490248FFF757BD000002
:1022C00000480040A0020020AC030020FEE7FEE72B
:1022D000704770477047000030B593B030216846B2
:1022E000FDF7A6FF14210CA8FDF7A2FF1D4800254D
:1022F000016841F080510160006800F08050119049
:102300001948016841F4804101600068022400F42A
:1023100080401190012003901020049000940694B6
:102320000820CDE90750A820CDE9090404200B902E
:102330006846FEF7F1FD08B172B6FEE70CA90F2062
:1023400081E831004FF4A0500F904FF4805010906E
:1023500005210CA8FEF7D6FC002801D072B6FEE7D6
:1023600013B030BD403802400070004002480168A0
:1023700041F470010160704788ED00E00148FFF70B
:102380003BB90000D00100200148FFF735B900003B
:10239000500600200148FFF72FB900002000002060
:1023A0000148FFF729B90000680000200148FFF745
:1023B00023B90000B00000200148FFF71DB900005C
:1023C000F80000200148FFF717B900004001002085
:1023D0000148FFF711B9000088010020F0B502683C
:1023E000254C264D264E274F274B4FF0804CA042C0
:1023F00009D0604507D0A84205D0B04203D0B8420A
:1024000001D0984204D122F0700E4A6842EA0E02CE
:10241000A0421BD0604519D0A84217D0B04215D0B9
:10242000B84213D0984211D0184DA8420ED0184D82
:10243000A8420BD0174DA84208D0174DA84205D08E
:10244000164DA84202D0164DA84203D122F4407581
:10245000CA682A434D6922F080022A4302608A68D2
:10246000C2620A688262A04201D0984201D1096921
:10247000016301214161F0BD000001400004004002
:1024800000080040000C00400004014000400140F2
:10249000004401400048014000180040001C00407A
:1024A0000020004010B5846842EA032224F47F44EF
:1024B0000A432243826010BD826822F070020A4300
:1024C00042F007018160704710B5036A046A24F086
:1024D00001040462846924F0F00444EA021423F045
:1024E0000A020A438461026210BD10B5036A23F038
:1024F000100303628369046A23F4704343EA0232DF
:1025000024F0A00343EA01118261016210BD10B5FD
:10251000806B0021C185C184FFF786F910BD70B5BD
:10252000846B2068406994F83D10C0F3C01000250A
:10253000212904D118B1E584204600F083F82068F1
:10254000406994F83E10C0F38010222904D118B1DC
:10255000E585204600F05EF8206C40F01000206415
:102560002046FFF761F970BD10B50146806B096820
:102570000968C9051BD40021C1850168CA6822F415
:102580008072CA6001684A6922F001024A610168EA
:102590004A6922F040024A61202180F83E10016B16
:1025A000012904D10168CA6822F01002CA60016BD7
:1025B000012902D0FFF7EFFB10BD818DFFF707F96E
:1025C00010BD10B5806B016B012902D0FFF7E4FB51
:1025D00010BD818D4908FFF7FAF810BD10B501460E
:1025E000806B09680968C9050CD40021C1840168A1
:1025F0004A6922F080024A610068C16841F04001E6
:10260000C16010BDFFF764FC10BD10B5806BFFF713
:1026100060FC10BD0168CA6822F49072CA6001684B
:102620004A6922F001024A61016B012904D1016863
:10263000CA6822F01002CA60202180F83E100021F2
:10264000016370470168CA6822F0C002CA60202195
:1026500080F83D10704710B5044690F83E002228DF
:1026600001D0022010BDA1684FF48052914201D1E7
:10267000206920B1A06A91421BD049B10AE02168CB
:10268000A06A4968C1F308010180A06A801C08E0C3
:10269000216971B12168496801F07F010170A06A68
:1026A000401CA062E08D401E0004000CE08503D0B9
:1026B0001CE021684968F1E72068C16821F0200129
:1026C000C1602068C16821F48071C16020684169DF
:1026D00021F001014161202084F83E00206B012897
:1026E00006D02046FFF757FB00202063002010BDD6
:1026F0002068C16821F01001C160A18D2046FFF75C
:1027000066F8F1E770B5044600680169E26821F4F3
:102710004051114301612169A068E2690843616980
:10272000114308432168CA6849F20C639A43024383
:10273000CA6020684169A26921F440711143416176
:1027400031492068884202D03049884202D1FEF7E0
:10275000A3FB01E0FEF790FBE26900231921642549
:102760003226B2F5004F626828D0A0FB0101930F1A
:102770009200FDF725FD0146B0FBF5F06FF0180261
:10278000504301EB800006EB0010B0FBF5F000F0C9
:10279000F002B1FBF5F002EB0012B1FBF5F06FF0C7
:1027A0001803584301EB800006EB0010B0FBF5F076
:1027B00000F00F0021681044886070BDA0FB01018B
:1027C00092185B41FDF7FCFC0146B0FBF5F00201FD
:1027D000B1FBF5F06FF01803584301EB800006EBF6
:1027E000C000B0FBF5F000F0F80002EB4002B1FBD6
:1027F000F5F0584301EB800006EBC000B0FBF5F0AC
:1028000000F00700D6E7000000100140001401406E
:1028100038B581628285002513460446056422206E
:1028200084F83E00A26B1348D063A26B1248106478
:10283000A26B1248D064A06B0A4605652168A06BA4
:10284000091DFEF703F8206801684168009184F8CB
:102850003C50C16841F48071C1602068416941F019
:10286000010141612068416941F04001416100205E
:1028700038BD000069250008C32500081F25000891
:102880002DE9F041984617460E460446069D1DE088
:10289000681C1BD02DB1FEF779F9A0EB0800A84207
:1028A00014D92068C16821F4D071C16020684169E1
:1028B00021F001014161202084F83D0084F83E00B0
:1028C000002084F83C000320BDE8F0812068006807
:1028D00036EA000004D00020B842D9D00020F3E747
:1028E0000120F9E7184808B500680168C1F3001134
:1028F00029B3016841680091016840681248FEF7F9
:1029000067FF124800684068C0F16400C2B2104816
:102910000270104801794379007801EB0321C9B2B4
:102920004A2807D18A4205D14FF6FF7309490A4860
:10293000FFF734FA642207490348FFF717FABDE8A6
:1029400008400148FEF772BF180200201004002062
:1029500001000020E4020020A00200200148FEF750
:1029600065BF00005C02002038B528480068016897
:10297000C1F30011E9B30168416800910168406842
:102980002248FEF725FF224800684068214DC0F12B
:102990006400214CC2B22A7020784A282CD1607879
:1029A000012808D0022808D0032808D0042808D01D
:1029B00005280BD012E0194904E0194902E0194931
:1029C00000E019490878401C087015E0174908789C
:1029D000401C087010491648FFF73AFA607806283C
:1029E0000AD114490878401C08702A780A4910480E
:1029F00000E006E0FFF72CFA642207490348FFF7DE
:102A0000B5F9BDE838400148FEF710BFA00200202C
:102A10009005002008000020AC03002002000020E8
:102A20000300002004000020050000200900002011
:102A3000180200200A000020FEE70000014A0249B7
:102A400000F023B8AD2A00081C0000200907090E79
:102A5000002804DB00F1E02080F80014704700F04B
:102A60000F0000F1E02080F8141D704702E008C854
:102A7000121F08C1002AFAD170477047002001E0F8
:102A800001C1121F002AFBD170472DE9F041164603
:102A90000F460446002503E03946B047641C6D1C10
:102AA00020780028F8D12846BDE8F08138B50446E2
:102AB0008DF800000223012269460248FFF76EF9F3
:102AC000204638BD1802002086B0FEF76DF8FFF7EB
:102AD00003FCFFF747FAFFF7FFF9FFF7A9FBFFF742
:102AE000CDFBFFF787FAFFF7B9FAFFF7EBFAFFF72D
:102AF0001DFB0024414800943F4942F2CF05019458
:102B0000C0E900154CF24F31C0E902418461FEF783
:102B100003FC08B172B6FEE7009469463748019499
:102B2000FEF7B2FB08B172B6FEE7344800944830B5
:102B300033490194C0E9001542F20F71C0E9024126
:102B40008461FEF7E9FB08B172B6FEE72B480094FA
:102B5000694648300194FEF797FB08B172B6FEE76C
:102B6000FFF718FBFFF73EFB2648FEF799FC2548C8
:102B70004830FEF795FC21489038FEF791FC224D35
:102B8000224E4FF400774FF48068287801281ED138
:102B90001F496A78A1F14400FFF75AF91C482C70CC
:102BA0004078C92813D10594FDF7DEFE4FF0006090
:102BB00002900B200390009405A96846FDF77EFE65
:102BC00018B114A0FFF73AFFFBE7FDF7C3FEA879A1
:102BD00001280AD0002239463046FDF7D1FF0122F4
:102BE00041463046FDF7CCFFCFE70122394630465B
:102BF000FDF7C6FF0022F3E700100040400100206F
:102C000000140040200000200000002000140240BA
:102C1000E402002048414C5F464C41534845785FF0
:102C20004572617365204F4B0D0A00004A74FF0125
:102C30000F000000000000000000DC00061016007D
:102C40000610160000000000000000010203040648
:102C50000708090000000001020304007C2C0008A2
:102C600000000020200000006C2A00089C2C0008B6
:102C700020000020980A00007C2A000800000000C4
:102C80000000000000000000010000001000000033
:0C2C9000000000000024F4000000000020
:040000050800018965
:00000001FF
