:020000040800F2
:10000000281500209D010008ED25000809210008A1
:1000100005240008F7030008812F000800000000F5
:10002000000000000000000000000000F1250008B2
:10003000FD04000800000000EF25000879270008F3
:10004000B7010008B7010008B7010008B7010008B0
:10005000B7010008B7010008B7010008B7010008A0
:10006000B7010008B7010008B7010008F90300084C
:1000700005040008110400081D04000829040008F4
:100080003504000841040008B7010008B701000862
:10009000B7010008B7010008B7010008B701000860
:1000A000B701000821280008B7010008B7010008BF
:1000B0002D2800083928000845280008B701000845
:1000C000B7010008B7010008B7010008B701000830
:1000D000B7010008B70100083D2D00080D2F0008EA
:1000E000B7010008B7010008B7010008B701000810
:1000F000B7010008B7010008B70100084D04000867
:10010000B7010008B7010008B7010008B7010008EF
:100110008529000891290008B7010008B7010008E7
:10012000B7010008B7010008B7010008B7010008CF
:10013000B70100080000000000000000B70100083F
:10014000B7010008B7010008B7010008B7010008AF
:10015000B7010008B7010008B7010008B70100089F
:10016000B7010008B7010008B7010008B70100088F
:10017000B7010008B701000800000000B70100083F
:10018000B7010008B7010008DFF80CD000F0B0F8A4
:1001900000480047693500082815002006488047B8
:1001A00006480047FEE7FEE7FEE7FEE7FEE7FEE75C
:1001B000FEE7FEE7FEE7FEE71128000889010008D8
:1001C0002DE9F05F0546002092469B46884606468C
:1001D000814640241BE0284641464746224600F01F
:1001E00076F853465A46C01A914110D31146184624
:1001F000224600F05DF82D1A67EB01084F462246B3
:100200000120002100F054F817EB00094E41201E98
:10021000A4F10104DFDC484631462A464346BDE8E6
:10022000F09F40EA01039B0703D009E008C9121FB1
:1002300008C0042AFAD203E011F8013B00F8013BA0
:10024000521EF9D27047D2B201E000F8012B491ECC
:10025000FBD270470022F6E710B513460A46044663
:100260001946FFF7F0FF204610BD30B504460020C8
:10027000034600E05B1C934203D2E05CCD5C401B74
:10028000F8D030BD30B50B460146002020220124B5
:1002900009E021FA02F59D4205D303FA02F5491B54
:1002A00004FA02F52844151EA2F10102F1DC30BD6A
:1002B000202A04DB203A00FA02F100207047914026
:1002C000C2F1200320FA03F3194390407047202A1B
:1002D00004DB203A21FA02F00021704721FA02F3F0
:1002E000D040C2F1200291400843194670470000F7
:1002F000064C074D06E0E06840F0010394E8070073
:1003000098471034AC42F6D3FFF742FF6859000813
:100310008859000870B58D1810F8014B14F00302CD
:1003200001D110F8012B231106D110F8013B03E095
:1003300010F8016B01F8016B521EF9D1ABB110F846
:10034000012B04F00C048A1A0C2C03D0A2EB8412AB
:100350009B1C08E010F8014BA2EB0422F8E712F80E
:10036000014B01F8014B5B1EF9D5A942D4D3002003
:1003700070BD70B506780A6886EA1266067005795F
:1003800085EA12450571047A84EA12240472037B1B
:100390005340037346784A6886EA12664670447989
:1003A00084EA12444471437A83EA12234372437B02
:1003B0005340437386788A6886EA12668670847929
:1003C00084EA12448471837A83EA12238372837BE2
:1003D00053408373C968C57885EA1165C570C379D0
:1003E00083EA1143C371C27A82EA1122C272C27BCC
:1003F0004A40C27370BDFEE7014800F09FB900009B
:10040000000B0020014800F099B90000800C00208A
:10041000014800F093B90000400A0020014800F0B4
:100420008DB90000E00C0020014800F087B9000001
:10043000A00A0020014800F081B90000C00B002094
:10044000014800F07BB90000200C0020014800F0BA
:1004500075B90000600B002001681823CAB2103A79
:10046000B2FBF3F2054B6FF30901032A9B5CC365F2
:1004700000D9091D81650846704700004B4D0008F2
:1004800010B5014600208B698A6A4FF0C07453B1E1
:10049000B3F5005F15D072B1012A0CD0022A0AD040
:1004A000032A09D104E01AB1012A06D0022A03D195
:1004B000C96AC90100D5012010BDC96AA142FAD09C
:1004C00010BD002AF7D0012AF2D0022AF3D0032A65
:1004D000F3D010BD30B50468256825F4802525606B
:1004E000046863608368402B036803D099600068E8
:1004F000C26030BD9A600068C16030BD704772B69E
:10050000FEE70000002229B101291AD002291BD0E0
:100510004FF440720E490B6823F440730B600B6874
:1005200013430B600A6822F0F8020A600A6802238B
:1005300003EBC00002430A60086840F480300860A2
:1005400070474FF48072E5E74FF40072E2E7000075
:10055000103C02401348016889050FD5016821F459
:1005600000710160016841F400610160016821F4DB
:1005700000610160016841F4007101600168490592
:100580000FD5016821F480610160016841F4805158
:100590000160016821F480510160016841F48061CB
:1005A00001607047003C024008490A6822F440722A
:1005B0000A600A6842F004020A600A684FF4803355
:1005C00043EA002002430A6070470000103C0240EA
:1005D00017490868C206174805D5C26942F01002DB
:1005E000C26110220A600A68920605D5C26942F00B
:1005F0000802C26120220A600A68520605D5C26953
:1006000042F00402C26140220A600A68120605D55F
:10061000C26942F00202C26180220A600A6892073F
:1006200005D5C26942F02002C2610220086070470D
:100630000C3C0240840E002070B511490446002095
:10064000C86100F055FB06460E4D09E0601C07D05E
:1006500024B100F04DFB801BA04201D9032070BDE6
:100660002868C003F2D42868C00701D001202860A0
:10067000286810F0F200F2D0FFF7AAFF012070BD49
:10068000840E00200C3C02402DE9F0410446876DA9
:1006900000F02EFB064694F835000025022806D00F
:1006A0008020606584F834500120BDE8F081206826
:1006B000016821F0160101602068416921F0800184
:1006C0004161206C08B9A06C20B12068016821F05C
:1006D000080101602068016821F0010101600BE060
:1006E00000F006FB801B052806D92020606504F871
:1006F000345F03206070D8E720680068C007EFD13E
:1007000094F85C103F208840B86004F8345F012002
:1007100060700020C9E790F83510022903D08021CD
:10072000416501207047052180F835100068016897
:1007300021F0010101600020704700002DE9F8431D
:1007400004464FF00009CDF8009063484FF416516D
:10075000A56D0068B0FBF1F72E6894F85C100820D6
:1007600000FA01F131420FD021680A6852070BD517
:100770000A6822F004020A6094F85C108840A860BD
:10078000606D40F00100606594F85C104FF0010866
:1007900008FA01F0304208D021684969090604D5F9
:1007A000A860606D40F00200606594F85C10042061
:1007B0008840304208D021680968890704D5A860BC
:1007C000606D40F00400606594F85C101020884073
:1007D000304218D021680968090714D5A86020683C
:1007E0000168490304D50068000308D5A16C07E03F
:1007F0000168C90503D4016821F008010160216C7A
:1008000009B12046884794F85C1020208840304287
:1008100031D021680968C9062DD5A86094F8350043
:1008200005282068016806D0490347D50068000301
:100830001DD4616C1CE021F0160101602068416943
:1008400021F080014161206C08B9A06C20B12068C2
:10085000016821F00801016094F85C103F20884095
:10086000A86084F8349084F83580216D1FE0E16B36
:1008700009B120468847606D00282BD0606DC00705
:1008800014D0052084F835002068016821F00101AA
:1008900001600098401C0090B84203D820680068AE
:1008A000C007F6D184F8349084F83580E16C0029D3
:1008B00010D001B02046BDE8F04308470168C905E3
:1008C000D5D4016821F01001016084F8349084F8D7
:1008D0003580CCE7BDE8F883380000202DE9F041F1
:1008E000044600F005FA06465CB1002584F8345051
:1008F000022084F835002068016821F001010160C0
:100900000DE00120BDE8F08100F0F2F9801B052820
:1009100005D920206065032084F83500F2E72068BF
:100920000068C007F0D12268116820480140D4E96E
:1009300001031843D4E9033633431843636918436A
:10094000A3691843E3691843236A18430843616A9B
:10095000042903D1D4E90B1319430843106020681C
:100960004069666A20F0070130460E4301270428DB
:100970000CD1A06A0643E06A40B12046FFF780FD33
:1009800020B14020606584F83570BAE72068466180
:100990002046FFF761FD94F85C203F219140816083
:1009A000656584F835700020ACE700003F8010F0EA
:1009B0002DE9F0410446866D90F8340000250128A9
:1009C0000DD0012084F8340094F835700020012FF8
:1009D00007D084F8340002252846BDE8F0810220C3
:1009E000FBE7022784F8357060652046FFF772FD4B
:1009F00094F85C103F208840B0602068016841F0A6
:100A000016010160206C20B12068016841F00801E6
:100A100001602068016841F001010160DCE700002D
:100A20002DE9F047044622480F46017E01290AD0ED
:100A30000121804601764CF250394846FFF7FCFD13
:100A4000020003D02FE00220BDE8F0874FF0FF3016
:100A500038602068174D012801D0A6681CE0207C72
:100A60006168FFF7A1FD4846FFF7E6FD02462868EA
:100A700020F00400286014E0217C3046FFF742FD9E
:100A80004846FFF7D9FD0200286820F0FA002860E8
:100A900001D03E6005E0761CD4E902100844B04263
:100AA000EAD8FFF757FD002188F818101046CBE769
:100AB000840E0020103C02400348016841F00041D0
:100AC0000160002070470000103C024007490020F0
:100AD0000A68002A09DA054A054B0C3A1360054BEF
:100AE00013600968002900DA01207047103C0240B9
:100AF00023016745AB89EFCD2DE9F84FDFF8B8A1A9
:100B0000002201250AF1040B03264FF00F090BF117
:100B1000040E00BF0B6805FA02F42340A3426FD114
:100B20000F7907F00307012F01D0022F16D1876834
:100B30004FEA420806FA08FC27EA0C07D1F80CC075
:100B40000CFA08FC4CEA070CC0F808C04768A74339
:100B50000C79C4F3001494403C4344600C79E443A2
:100B6000A4070AD0C4684FEA420C06FA0CF7BC434B
:100B70008F6807FA0CF72743C7600C7904F0030469
:100B8000022C12D1D40800EB840CDCF8204057076B
:100B9000FF0E09FA07F824EA0804D1F8108008FAD1
:100BA00007F848EA0408CCF8208004684FEA420CB1
:100BB00006FA0CF7BC430F7907F0030707FA0CF7A6
:100BC000274307604C68E40070D53C4C276847F425
:100BD00080472760246822F0030704F480440094CF
:100BE000374C07EB040CDCF8084897074FEA1778F6
:100BF00009FA08F7BC43334FB84202D1002724E07A
:100C000054E0314FB84201D101271EE02F4FB842C6
:100C100001D1022719E02E4FB84201D1032714E079
:100C20002C4FB84201D104270FE02B4FB84201D11D
:100C300005270AE0294FB84201D1062705E0284FD1
:100C4000B84201D1072700E0082707FA08F7274331
:100C5000CCF80878DAF800405746D1F804C09C4335
:100C60005FEACC3C00D51C433C60DBF800405F46AB
:100C7000D1F804C09C435FEA8C3C00D51C433C6027
:100C8000DEF800407746D1F804C09C435FEACC2CE4
:100C900000D51C433C60084F0C373C68D1F804C0B9
:100CA0009C435FEA8C2C00D51C433C60521C102AEC
:100CB000FFF430AFBDE8F88F003C014044380240FB
:100CC00000300140000002400004024000080240E1
:100CD000000C0240001002400014024000180240C4
:100CE000001C02400AB1816170470904FBE7000063
:100CF00001488068704700002C000020024881688D
:100D000002781144816070472C0000200B4810B518
:100D1000016841F400710160016841F48061016083
:100D2000016841F480710160032000F089F800201F
:100D300000F006F800F03EF8002010BD003C024034
:100D400010B5014688B00022192000F059F819208A
:100D500000F048F813480024016841F001010160E7
:100D6000006805A900F001000690684600F014F93B
:100D700000F042F90C494000B0FBF1F10C480B4A7D
:100D8000491E026040F2E732C0E90324C0E90114C1
:100D900000F074FB10B1012008B010BD044800F051
:100DA000DFFBF9E74438024040420F0000000140F9
:100DB0003C0E00200A4808B5016841F480410160FA
:100DC000006800F4804000900548001F016841F071
:100DD00080510160006800F08050009008BD000064
:100DE00044380240002809DB00F01F020121914035
:100DF0004009800000F1E020C0F8001170470000B9
:100E0000F0B40E4B1B680C46C3F30223C3F1070575
:100E1000042D00D90425191D072901D2002300E063
:100E2000DB1E012606FA05F1491E214099409E402D
:100E3000761E16403143F0BC02F0DAB80CED00E04B
:100E4000064900F0070208684FF6FF03184040EA21
:100E50000220034A10430860704700000CED00E0D8
:100E60000000FA052DE9F0470E46050065D0DFF8D1
:100E70001481D8F80000F7B200F00700B04207D2A2
:100E800088F80070D8F8000000F00700B04254D194
:100E900028683D4C810712D5400703D5206840F4EF
:100EA000E05020602878000703D5206840F46040B7
:100EB00020602068A96820F0F000084320602878AE
:100EC000C0072DD0304968680839012812D002289F
:100ED00013D0032811D00968890700292DDA216869
:100EE00021F0030101432160FFF702FF814641F237
:100EF000883A0EE009688903EFE709688901ECE7A1
:100F0000FFF7F6FEA0EB0901514502D90320BDE829
:100F1000F0872068696800F00C00B0EB810FEFD11A
:100F2000D8F80010404601F00701B14207D9077018
:100F3000006800F00700B04201D00120E7E7287800
:100F4000400705D52068E96820F4E0500843206098
:100F50002878000706D52068296920F4604040EA17
:100F6000C100206000F058F82168084AC1F303115D
:100F7000515CC8400649086006480068FFF7E0FE7B
:100F80000020C4E7003C024008380240534D0008EE
:100F900038000020300000200F2202600C4A136845
:100FA00003F003034360136803F0F00383601368E6
:100FB00003F4E053C36012684FF4E05303EAD20233
:100FC00002610448006800F00700086070470000F4
:100FD00008380240003C024004480549006809689E
:100FE000044AC1F38221515CC84070473800002098
:100FF00008380240634D0008044805490068096844
:10100000044AC1F34231515CC840704738000020A7
:1010100008380240634D0008154810B5006810F00C
:101020000C02144813D01449042A0FD0082A0ED1F8
:101030000F4C241F2268236802F03F025B0207D591
:101040002068C0F38810A0FB010106E0084610BD2F
:101050002168C1F38811A1FB00010023FFF7B0F85C
:101060002168C1F30141491C4900B0FBF1F010BDFA
:10107000083802400024F40000366E012DE9F84FD4
:1010800004006ED02078DFF84C93C007A9F1040566
:101090004AD009F104000168C1F38101012908D097
:1010A0000068C0F3810002280AD1D9F8000040028C
:1010B00006D52868800337D560680028E1D033E082
:1010C0006068B0F5803F10D0B0F5A02F286810D030
:1010D00020F480302860286820F480202860606830
:1010E000A8B1FFF705FE06460DE0286840F4803001
:1010F000F4E740F480202860F7E700BFFFF7F8FD31
:10110000801B642873D828688003F7D50CE0FFF7AC
:10111000EFFD064605E000BFFFF7EAFD801B6428EF
:10112000F0D828688003F7D42078DFF8AC828007F5
:101130004FF0000A3ED5A748001D016811F00C0FC2
:1011400008D00068C0F3810002280BD1D9F8000054
:10115000400207D42868800716D5E068012800D12E
:1011600012E033E1E068B8B10120C8F80000FFF7F1
:10117000BFFD064605E000BFFFF7BAFD801B022851
:10118000C0D828688007F7D52868216920F0F800C2
:1011900040EAC10028600DE0C8F800A0FFF7A8FDF4
:1011A000064604E0FFF7A4FD801B02281FD828682C
:1011B0008007F7D42078000722D5864F87486169D9
:1011C000703771B101210160FFF792FD064604E01E
:1011D000FFF78EFD801B022809D838688007F7D5F5
:1011E0000EE0C0F800A0FFF783FD064605E082E0B0
:1011F000FFF77EFD801B02287DD838688007F7D472
:101200002078400768D5DFF8CCB100270BF13C0B04
:10121000DBF80000C0000BD4DBF8001041F0805177
:10122000CBF80010DBF80000012700F080500090A0
:101230006B4E3068C00510D4306840F48070306068
:10124000FFF756FD009005E0FFF752FD0099401AA8
:10125000022850D83068C005F6D55E4EA0686C36BE
:1012600001280FD00528306810D020F00100306030
:10127000306820F004003060A068B8B1FFF738FD96
:1012800000900FE0306840F00100F4E740F0040007
:101290003060F7E7FFF72CFD0099411A41F28830E2
:1012A000814266D830688007F4D50EE0FFF720FD54
:1012B000009007E0FFF71CFD0099411A41F28830C9
:1012C000814256D830688007F4D42FB1DBF8001083
:1012D00021F08051CBF80010A069C8B33D49091D29
:1012E0000968C1F3810102294AD00228504607D07B
:1012F000C8F8600000E03CE0FFF7FAFC04463BE081
:101300004746C8F86000FFF7F3FC064605E000BF5B
:10131000FFF7EEFC801B02282BD828688001F7D449
:10132000D4E907010843A16A2E4A490802EB0141AA
:10133000626A41EA8211084394F82C1040EA016184
:10134000C9F8001001203866FFF7D2FC044606E019
:101350003EE000BFFFF7CCFC001B022809D828683C
:101360008001F7D534E000BFFFF7C2FC001B022864
:1013700002D90320BDE8F88F28688001F4D427E063
:101380000128F7D0D9F80000E26900F48001914209
:101390001CD1226A00F03F01914217D147F6C0717B
:1013A000626A0140B1EB821F10D1A26A4FF0FF3395
:1013B00000F4403103EB5202B1EB024F06D194F836
:1013C0002C1000F07060B0EB016F01D00120D1E76C
:1013D0000020CFE70438024000004742800E474219
:1013E000007000400000FFFF7047704770B590F834
:1013F0003C20012A32D0012480F83C40022280F8AF
:101400003D2003685A689D6822F070060A683243DE
:101410005A60134B02689A4214D0B2F1804F11D037
:10142000104B9A420ED0104B9A420BD00F4B9A425F
:1014300008D00F4B9A4205D00E4B9A4202D00E4B69
:101440009A4204D1496825F080031943916080F8DD
:101450003D40002180F83C10084670BD022070BD60
:10146000000001400004004000080040000C004063
:1014700000040140004001400018004010B5040085
:1014800003D094F83D0010B107E0012010BD00200A
:1014900084F83C00204600F01FF8022084F83D004C
:1014A000211D206801F0D4F9012084F8460084F859
:1014B0003E0084F83F0084F8400084F8410084F83E
:1014C000420084F8430084F8440084F8450084F81E
:1014D0003D00002010BD000008B501681D48B1F1B5
:1014E000804F11D01C4A91421DD1016841F0020188
:1014F00001600068002200F00200009002211D201F
:10150000FFF77EFC1D201FE0016841F00101016032
:101510000068002200F00100009001211C20FFF76C
:101520006FFC1C2010E00D4A914211D1016841F07E
:10153000040101600068002200F004000090032113
:101540001E20FFF75DFC1E20BDE80840FFF74ABCE7
:1015500008BD000040380240000400400008004080
:1015600090F83D10012901D001207047022180F838
:101570003D100168CA6842F00102CA600068114962
:10158000884214D0B0F1804F11D00F4988420ED05C
:101590000E4988420BD00E49884208D00D49884236
:1015A00005D00D49884202D00C49884204D1816897
:1015B00001F00701062903D0016841F00101016033
:1015C0000020704700000140000400400008004077
:1015D000000C0040000401400040014000180040A1
:1015E00070B5044690F83C00012817D0012584F816
:1015F0003C50022084F83D002068826822F0770287
:1016000022F47F4282600868502830D00DDC202808
:101610004DD005DC98B310283BD148E0022070BDC6
:10162000302844D0402834D139E0602828D07028B0
:1016300006D0B0F5805F2CD0B0F5005F29D10AE06C
:10164000CB68D1E90121206801F066F92068816842
:1016500041F0770109E0CB68D1E90121206801F070
:101660005BF92068816841F48041816011E0CA68BB
:101670004968206801F062F95021206807E016E00F
:10168000CA684968206801F06AF96021206801F0A1
:101690004DF984F83D50002084F83C0070BDCA68C4
:1016A0004968206801F04AF940212068EFE7226884
:1016B00001461046EBE7704770B5044600680169C3
:1016C0004FF00005C943890715D4C168C94389078C
:1016D00011D4E91E0161012020772068806980070C
:1016E000204602D0FFF7E7FF04E000F098F820461C
:1016F00000F096F8257720680169C943490717D497
:10170000C168C943490713D46FF004010161022085
:1017100020772068806910F4407F204602D0FFF7D0
:10172000CAFF04E000F07BF8204600F079F8257746
:1017300020680169C943090716D4C168C94309076C
:1017400012D46FF008010161042020772068C0697D
:101750008007204602D0FFF7AEFF04E000F05FF8FC
:10176000204600F05DF8257720680169C943C90665
:1017700017D4C168C943C90613D46FF010010161C1
:10178000082020772068C06910F4407F204602D0EE
:10179000FFF791FF04E000F042F8204600F040F827
:1017A000257720680169C943C90708D1C168C943C1
:1017B000C90704D1891E0161204600F033F8206872
:1017C0000169C943090609D4C168C943090605D49A
:1017D0006FF0800101612046FFF706FE2068016975
:1017E000C943490609D4C168C943490605D46FF005
:1017F00040010161204600F003F920680169C943F6
:1018000089060BD4C168C943890607D46FF020014B
:1018100001612046BDE87040FFF7E7BD70BD70472D
:10182000704700002DE9FF41064600684A4988429A
:1018300001D1FFF763FA49480025494C864240D15F
:10184000E17A48A001F0C4FB217B46A001F0C0FB77
:10185000617B47A001F0BCFBA17B48A001F0B8FB75
:10186000E17B49A001F0B4FB217C4AA001F0B0FB70
:10187000617C4BA001F0ACFBA17C4CA001F0A8FB6B
:10188000E17C4DA001F0A4FB217D4EA001F0A0FB66
:10189000617D4FA001F09CFBA17D50A001F098FB61
:1018A000E57225736573A573E57325746574A57476
:1018B000E57425756575A575618B4BA001F088FBF6
:1018C000658326484FF6FF774830864206D13B466F
:1018D0002122484900F58C7000F0BCFB1F48903075
:1018E000864237D1D4E90801401C41F10001C4E926
:1018F0000801208B401C80B22083B0F57A7F22D172
:101900005A208DF800007E208DF8010002208DF80D
:101910000200206ACDF80300606ACDF807000D20B0
:101920008DF80B000A208DF80C003B460D2269460D
:10193000314800F08FFB2583D4E90801401C41F1B8
:101940000001C4E908012D4A206A5040084301D132
:10195000C4E90800BDE8FF810000014074030020D5
:10196000000000204D5347315F323A25640D0A00D4
:101970004D5347315F333A25640D0A004D534732CA
:101980005F313A25640D0A004D5347325F323A25E4
:10199000640D0A004D5347325F333A25640D0A0047
:1019A0004D5347335F313A25640D0A004D53473399
:1019B0005F323A25640D0A004D5347335F333A25B1
:1019C000640D0A004D5347345F313A25640D0A0017
:1019D0004D5347345F323A25640D0A004D53473466
:1019E0005F333A25640D0A004D53473131363A25AD
:1019F000640D0A002A4D0008D404002000D683009C
:101A00007047704710B504460068416994F83D205E
:101A1000C1F3C011212A0BD151B1416921F08001DC
:101A20004161606B08B1FEF72FFE204601F035F8EA
:101A30002068416994F83E20C1F38011222A0BD11D
:101A400051B1416921F040014161A06B08B1FEF73D
:101A50001BFE204601F009F8002010BD7047000071
:101A6000F8B5026804461068D168536910F00F0F8A
:101A70004FF0000554D003F0010601F4907737438E
:101A80005FD0C20705D0CA0503D5226C42F001021F
:101A90002264420705D5DA0703D0226C42F0020225
:101AA0002264820705D5DA0703D0226C42F00402D3
:101AB0002264020707D501F02002324303D0226CD2
:101AC00042F008022264226C002A35D0800604D538
:101AD000880602D5204600F0E9FF20684069216CA5
:101AE000C0F3801001F008010143204625D000F02A
:101AF000BCFF2068416949061BD5416921F04001BE
:101B00004161A06BA8B159490165A06BFEF703FEC6
:101B1000002811D0A06B016D01B0BDE8F04008476E
:101B200083060ED58B060CD52046BDE8F84000F0A4
:101B3000BDBF2046FFF792FFF8BDFFF78FFF25647A
:101B4000F8BD266B2023012E53D1C60651D5CE06F3
:101B50004FD5106850680090506940062BD5A16B96
:101B6000086840680004000CEAD0A68D8642E7D9D8
:101B7000E085C869B0F5807F18D0D06820F4807007
:101B8000D0602068416921F001014161206841690C
:101B900021F04001416184F83E3025632068C1682E
:101BA00021F01001C160A06BFEF76EFDA08DE18DEC
:101BB000401A81B219E0A08DE18D401A81B2E08D0A
:101BC0000028BDD00029BBD0D06820F49070D06030
:101BD0002068426922F00102426184F83E302563A8
:101BE0002068C26822F01002C2602046FFF709FF99
:101BF000F8BD05062BD50D0629D594F83D00212802
:101C0000F6D1A068B0F5805F01D12069B0B1206A3B
:101C1000411C2162216800784860E08C401E00046D
:101C2000000CE084E4D12068C16821F08001C1602B
:101C30002068C16841F04001C160F8BD206A008899
:101C4000C0F308005060206A801C2062E5E740066F
:101C5000F3D54806F1D5D168204621F04001D16086
:101C600084F83D3000F04FFAF8BD00009D290008CF
:101C700070B5040004D094F83D00002510B106E0D2
:101C8000012070BD84F83C50204600F023F8242049
:101C900084F83D002068C16821F40051C1602046ED
:101CA00000F05CFF2068016921F490410161206827
:101CB000416921F02A0141612068C16841F4005165
:101CC000C1602564202084F83D0084F83E00002097
:101CD00070BD00002DE9F04F87B00546142168461D
:101CE000FEF7B8FABE49BE48DFF8F082D5F800C06A
:101CF00010380222032300244E054FF440674FF0B2
:101D0000010B4FF0080E4FF0400A4FF48069C445B4
:101D10004BD1D1F800C04CF4002CC1F800C00968C8
:101D200001F400210591016841F00401016000689F
:101D3000CDE902B300F00400CDE904E0CDE9007282
:101D40006946A848FEF7D8FEA84FA748B0463860B5
:101D5000C7E90164C7E903497C61BC61FC613C627D
:101D60004E4638467C62FEF7B9FD08B1FEF7C7FB68
:101D7000AF63BD639E4F9C48C7E903467C61BC616D
:101D8000FC613C6230307C6287E801053846FEF732
:101D9000A5FD08B1FEF7B3FB6F63002211463420A6
:101DA000BD63FFF72DF8342063E0DFF84882C445B7
:101DB00064D10F6847F480170F60096801F480113F
:101DC0000591016841F004010160016801F004011E
:101DD0000591016841F0080101600068984600F033
:101DE000080005904FF4805000900220CDE9010BCF
:101DF000CDE9033E774669467A48FEF77DFE04202A
:101E000000900220CDE9010BCDE9038769467A48AD
:101E1000FEF772FE7448794F30383860C7E90164C4
:101E2000C7E903497C61BC61FC613C6238467C6265
:101E3000FEF754FD08B1FEF762FBAF63BD63704F60
:101E40006948C7E903497C61BC61FC613C62783048
:101E50007C6287E841043846FEF740FD08B1FEF792
:101E60004EFB6F63002211463520BD63FEF7C8FFAD
:101E70003520FEF7B7FF07B0BDE8F08FDFF88481AB
:101E80004FF0070BC4454AD10F6847F400370F6085
:101E9000096801F400310591016841F00101016018
:101EA0000068694600F0010005900C208DE81500DF
:101EB000CDE9033B5448FEF71FFE4B48534F4830D3
:101EC000B0463860C7E90164C7E903497C61BC6179
:101ED000FC613C624E4638467C62FEF7FFFC08B16E
:101EE000FEF70DFBAF63BD63494F3F48C7E90346AB
:101EF0007C61BC61FC613C6260307C6287E801050A
:101F00003846FEF7EBFC08B1FEF7F9FA6F630022E2
:101F100011462620BD63FEF773FF2620A9E7DFF8F0
:101F2000F480C445A7D1D1F800C0A0464CF4802C61
:101F3000C1F800C0096801F480210591016841F0F1
:101F4000020101600068009700F00200CDE904B0D2
:101F50000393CDE9012469462F48FEF7CDFD2249C0
:101F6000DFF8B8B018395846CBF80010C0E9016462
:101F7000C0E90349CBF81440CBF81840CBF81C401B
:101F8000CBF820404F46CBF82440FEF7A7FC08B121
:101F9000FEF7B5FA1448224CC5F838B01830CBF823
:101FA000385084E84104C4E90387C4F81480C4F8B5
:101FB0001880C4F81C80C4F820802046C4F824800F
:101FC000FEF78CFC08B1FEF79AFA6C63002211460A
:101FD0002720A563FEF714FF27204AE7004C0040A6
:101FE000403802400008024040600240400A0020A1
:101FF000A00A002000500040000C0240000B00200E
:10200000600B00200044004000000240C00B002094
:10201000200C00200048004000040240800C0020FA
:10202000E00C002090F83E30202B0ED159B152B177
:1020300090F83C30012B08D0012380F83C3000237D
:10204000036300F011BE0120704702207047704703
:10205000704700002DE9F843044690F83D001F4604
:1020600016460D4620284CD1C5B1BEB194F83C00AF
:10207000012846D0012084F83C004FF00008C4F845
:102080004080212084F83D00FEF732FEA684814680
:10209000E684A068B0F5805F03D004E00120BDE8CD
:1020A000F883206928B12E465FF0000584F83C8053
:1020B0000EE00026FAE78021204600F00DFEA0B9D0
:1020C000AEB116F8010B21684860E08C401EE08438
:1020D000E08C4B464FF0000200970028EBD14FF008
:1020E0004001204600F0F8FD30B10320D7E735F875
:1020F000020BC0F30800E6E7202084F83D00002032
:10210000CDE70220CBE77047FEE70000254808B581
:10211000016841F4001101600068002200F4001021
:10212000009011460B20FEF76BFE0B20FEF75AFEC7
:10213000002211460C20FEF763FE0C20FEF752FE33
:10214000002211460D20FEF75BFE0D20FEF74AFE31
:10215000002211460E20FEF753FE0E20FEF742FE2F
:10216000002211460F20FEF74BFE0F20FEF73AFE2D
:10217000002211461020FEF743FE1020FEF732FE2B
:10218000002211461120FEF73BFE1120FEF72AFE29
:10219000002211462F20FEF733FEBDE808402F2015
:1021A000FEF720BE3038024030B587B014216846B3
:1021B000FEF750F81D480024016841F00401016059
:1021C000016801F004010591016841F0800101609E
:1021D000016801F080010591016841F00101016091
:1021E000016801F001010591016841F002010160FF
:1021F000016801F002010591016841F008010160E8
:1022000000680B4D00F00800059000228021284650
:10221000FEF768FD802000900120CDE901046946A9
:1022200028460394FEF768FC07B030BD3038024002
:102230000004024010B586B00024174800940194B1
:102240000294039404944FF080410594016042F29B
:10225000CF01C0E901141149C0E903148021816153
:10226000FFF70CF908B172B6FEE74FF4805000900A
:1022700069460948FFF7B4F908B172B6FEE704945D
:1022800004A905480594FFF7B1F8002801D072B6FB
:10229000FEE706B010BD0000740300209F86010019
:1022A00010B586B000241848009401940294039459
:1022B000049414490594016040F24731C0E90114C7
:1022C00040F2E731C0E9031480218161FFF7D6F8BD
:1022D00008B172B6FEE74FF48050009069460A4894
:1022E000FFF77EF908B172B6FEE7049404A9064828
:1022F0000594FFF77BF8002801D072B6FEE706B020
:1023000010BD000000040040BC03002010B586B0E2
:1023100000241748009401940294039404941349F0
:102320000594016040F24731C0E901146321C0E91E
:10233000031480218161FFF7A1F808B172B6FEE7AE
:102340004FF48050009069460948FFF749F908B1F9
:1023500072B6FEE7049404A905480594FFF746F811
:10236000002801D072B6FEE706B010BD000800409C
:102370000404002010B50E4C0C480C2120604FF4D2
:10238000E13060600020A060E060C4E90401A06169
:10239000E0612046FFF76CFC08B172B6FEE72068EA
:1023A000C16841F02001C16010BD00000044004040
:1023B000D404002010B5114C0F480C2120604FF4BC
:1023C000E13060600020A060E060C4E90401A06129
:1023D000E0612046FFF74CFC08B172B6FEE72068CA
:1023E000C16841F01001C160BDE81040FA22044903
:1023F0000248FFF717BE0000004800401805002003
:1024000044090020FEE70000F0B50378067976491C
:1024100003EB430706EB460C057A047B11F8172003
:1024200001EB4C0E02709EF801E082EA0E026A4057
:1024300062400270037111F81CC083EA0C0205EBC4
:10244000450C01EB4C0E02719EF801E082EA0E028F
:102450006240027183EA0602027211F81C305A408F
:1024600004EB440301EB430402726478624002729D
:1024700001EB4702527872406A40027311F8133040
:102480005A4002734378457903EB430C05EB45074B
:10249000447A467B11F81C2001EB470E42709EF8EF
:1024A00001E082EA0E02624072404270437111F80C
:1024B000172004EB44075A4001EB470E42719EF887
:1024C00001E06B4082EA0E0272404271437211F8E1
:1024D000172006EB46065340437201EB4602527842
:1024E000534001EB4C02437252786A40624042739F
:1024F00011F816305A4042738378857903EB430C08
:1025000005EB4507847A867B11F81C2001EB470E0A
:1025100082709EF801E082EA0E0262407240827090
:10252000837111F8172004EB44075A4001EB470E62
:1025300082719EF801E06B4082EA0E027240827165
:10254000837211F8172006EB4606534001EB460252
:1025500083725278534001EB4C02837252786A4086
:102560006240827311F816305A408273C378C5797D
:1025700003EB430C05EB4507C47AC67B11F81C201E
:1025800001EB470EC2709EF801E082EA0E02624043
:102590007240C270C37111F8177083EA070204EB2E
:1025A000440701EB470EC2719EF801E082EA0E0279
:1025B0007240C27183EA0502C27211F817305A40A4
:1025C00006EB460301EB4306C27276787240C27294
:1025D00001EB4C0252786A406240C27311F813104A
:1025E0004A40C273F0BD00006C4F0008FEE7704720
:1025F000704701794279027182794271C2798271A0
:10260000C171017A827A02728172417AC27A42720F
:10261000C172017BC27B0273827BC273427B827375
:10262000417370470278404922F00F030B4402F0D7
:102630000F029A5C0270427822F00F030B4402F002
:102640000F029A5C4270827822F00F030B4402F072
:102650000F029A5C8270C27822F00F030B4402F0E2
:102660000F029A5CC270027922F00F030B4402F051
:102670000F029A5C0271427922F00F030B4402F0C0
:102680000F029A5C4271827922F00F030B4402F030
:102690000F029A5C8271C27922F00F030B4402F0A0
:1026A0000F029A5CC271027A22F00F030B4402F00F
:1026B0000F029A5C0272427A22F00F030B4402F07E
:1026C0000F029A5C4272827A22F00F030B4402F0EE
:1026D0000F029A5C8272C27A22F00F030B4402F05E
:1026E0000F029A5CC272027B22F00F030B4402F0CD
:1026F0000F029A5C0273427B22F00F030B4402F03C
:102700000F029A5C4273827B22F00F030B4402F0AB
:102710000F029A5C8273C27B22F00F03194402F00D
:102720000F02895CC17370476C4D0008114910B5E8
:10273000C0F3031201EB021200F00F03C0F30324F5
:10274000D25CC0F3033301EB03131B5DC0F30344FE
:1027500002EB0322C0F3035301EB03131B5D02EBF7
:102760000342030F01EB0311C0F30360085C02EBAB
:10277000006010BD6C4D00087047000030B593B08C
:1027800030216846FDF766FD14210CA8FDF762FDB7
:102790001D480025016841F080510160006800F08B
:1027A000805011901948016841F48041016000682F
:1027B000022400F480401190012003901020049026
:1027C000009406940820CDE90750A820CDE909041B
:1027D00004200B906846FEF751FC08B172B6FEE784
:1027E0000CA90F2081E831004FF4A0500F904FF456
:1027F0008050109005210CA8FEF734FB002801D072
:1028000072B6FEE713B030BD4038024000700040A1
:102810000248016841F470010160704788ED00E0F2
:102820000148FEF749BF00003C0E00200148FEF7BA
:1028300043BF0000740300200148FEF73DBF0000C5
:10284000BC0300200148FEF737BF0000040400204D
:10285000F0B50268254C264D264E274F274B4FF0EA
:10286000804CA04209D0604507D0A84205D0B042B4
:1028700003D0B84201D0984204D122F0700E4A68C9
:1028800042EA0E02A0421BD0604519D0A84217D0E0
:10289000B04215D0B84213D0984211D0184DA8427A
:1028A0000ED0184DA8420BD0174DA84208D0174D96
:1028B000A84205D0164DA84202D0164DA84203D119
:1028C00022F44075CA682A434D6922F080022A43E7
:1028D00002608A68C2620A688262A04201D098429D
:1028E00001D10969016301214161F0BD000001408E
:1028F0000004004000080040000C004000040140BB
:1029000000400140004401400048014000180040E0
:10291000001C00400020004010B5846842EA0322F9
:1029200024F47F440A432243826010BD826822F06F
:1029300070020A4342F007018160704710B5036AD4
:10294000046A24F001040462846924F0F00444EA77
:10295000021423F00A020A438461026210BD10B51A
:10296000036A23F0100303628369046A23F470434B
:1029700043EA023224F0A00343EA011182610162BA
:1029800010BD00000148FFF76BB800004C040020A8
:102990000148FFF765B800009004002010B5806B77
:1029A0000021C185C184FFF759F810BD70B5846B53
:1029B0002068406994F83D10C0F3C010002521291B
:1029C00004D118B1E584204600F067F8206840691A
:1029D00094F83E10C0F38010222904D118B1E58587
:1029E000204600F042F8206C40F0100020642046A1
:1029F000FFF734F870BD10B50146806B09680968AF
:102A0000C9051BD40021C1850168CA6822F48072FF
:102A1000CA6001684A6922F001024A6101684A6994
:102A200022F040024A61202180F83E10016B01290A
:102A300004D10168CA6822F01002CA60016B012942
:102A400002D0FFF704FB10BD818DFEF7DAFF10BD49
:102A500010B5806B016B012902D0FFF7F9FA10BDA8
:102A6000818D4908FEF7CDFF10BD0168CA6822F4C8
:102A70009072CA6001684A6922F001024A61016BE2
:102A8000012904D10168CA6822F01002CA6020211D
:102A900080F83E100021016370470168CA6822F087
:102AA000C002CA60202180F83D10704710B504466E
:102AB00090F83E00222801D0022010BDA1684FF4FA
:102AC0008052914201D1206920B1A06A91421BD06D
:102AD00049B10AE02168A06A4968C1F30801018090
:102AE000A06A801C08E0216971B12168496801F081
:102AF0007F010170A06A401CA062E08D401E0004AE
:102B0000000CE08503D01CE021684968F1E72068EB
:102B1000C16821F02001C1602068C16821F4807182
:102B2000C1602068416921F001014161202084F8E1
:102B30003E00206B012806D02046FFF788FA0020CF
:102B40002063002010BD2068C16821F01001C16021
:102B5000A18D2046FEF755FFF1E7000070B5044651
:102B600000680169E26821F4405111430161216963
:102B7000A068E26908436169114308432168CA6893
:102B800049F20C639A430243CA6020684169A26912
:102B900021F440711143416131492068884202D0DB
:102BA0003049884202D1FEF727FA01E0FEF714FA15
:102BB000E2690023192164253226B2F5004F6268CC
:102BC00028D0A0FB0101930F9200FDF7F9FA01460E
:102BD000B0FBF5F06FF01802504301EB800006EBFC
:102BE0000010B0FBF5F000F0F002B1FBF5F002EBE5
:102BF0000012B1FBF5F06FF01803584301EB8000B1
:102C000006EB0010B0FBF5F000F00F002168104457
:102C1000886070BDA0FB010192185B41FDF7D0FAFE
:102C20000146B0FBF5F00201B1FBF5F06FF01803BF
:102C3000584301EB800006EBC000B0FBF5F000F05C
:102C4000F80002EB4002B1FBF5F0584301EB8000C5
:102C500006EBC000B0FBF5F000F00700D6E700007F
:102C6000001001400014014038B5816282850025C2
:102C7000134604460564222084F83E00A26B1348E4
:102C8000D063A26B12481064A26B1248D064A06B90
:102C90000A4605652168A06B091DFDF789FE2068BD
:102CA00001684168009184F83C50C16841F480712A
:102CB000C1602068416941F00101416120684169BA
:102CC00041F040014161002038BD0000F7290008B3
:102CD000512A0008AD2900082DE9F0419846174611
:102CE0000E460446069D1DE0681C1BD02DB1FDF765
:102CF000FFFFA0EB0800A84214D92068C16821F4A6
:102D0000D071C1602068416921F00101416120203A
:102D100084F83D0084F83E00002084F83C00032045
:102D2000BDE8F0812068006836EA000004D0002089
:102D3000B842D9D00020F3E70120F9E72DE9F041AE
:102D40005A4800680168C943890608D44068584F4A
:102D5000C1B201265A2903D03878012801D09FE05A
:102D60003E70554D534C28782154401CC2B2A018D7
:102D70002A7010F8021C0D297ED110F8010C0A28C7
:102D80007AD1DFF83881002098F8001031B9611C41
:102D90004B48FDF746FA88F800600120DFF82481EF
:102DA00098F80010014307D12A78611C4648FDF7C6
:102DB00038FA88F800600120DFF8108198F80010D8
:102DC000014307D12A78611C4148FDF72AFA88F8A7
:102DD00000600120DFF8FC8098F80010014307D163
:102DE0002A78611C3C48FDF71CFA88F80060012035
:102DF000DFF8E88098F80010014307D12A78611CB9
:102E00003748FDF70EFA88F800600120DFF8D4801B
:102E100098F80010014307D12A78611C3248FDF769
:102E200000FA88F800600120DFF8C08098F80010F0
:102E3000014307D12A78611C2D48FDF7F2F988F883
:102E400000600120DFF8AC8098F80010014307D142
:102E50002A78611C2848FDF7E4F988F80060012011
:102E6000DFF8988098F80010014309D12A78611C96
:102E70002348FDF7D6F900E012E088F80060012051
:102E8000DFF8808098F80010014306D12A78611C91
:102E90001D48FDF7C6F988F80060002028703870DA
:102EA000BDE8F0410148FEF7DBBD0000D40400207E
:102EB00028000020400D00202900002001000020F3
:102EC0005C05002002000020C00500200300002057
:102ED00024060020040000208806002005000020B1
:102EE000EC0600200600002050070020070000200C
:102EF000B407002008000020180800200900002066
:102F00007C0800200A000020E0080020174808B5CF
:102F100000680168C1F3001111B3016841680091B4
:102F2000016840681148FEF76DFD1148006840686F
:102F3000C0F1FA00C2B20F4802700F48017943791C
:102F4000007801EB0321C9B24A2804D18A4202D198
:102F50000A4901200870FA2207490448FFF762F87D
:102F6000BDE808400148FEF77BBD000018050020C1
:102F7000800C00202A0000204409002017000020B7
:102F8000FEE7000010B586B000240594FDF79EFD15
:102F90004FF0006002900B200390009405A9684652
:102FA000FDF73EFD18B104A000F012F8FBE7FDF7B5
:102FB00083FD06B010BD000048414C5F464C4153B4
:102FC0004845785F4572617365204F4B0D0A0000DC
:102FD0000FB4054B10B503A9044A029800F028F875
:102FE00010BC5DF814FB00002D35000870030020B4
:102FF0000907090E002804DB00F1E02080F8001426
:10300000704700F00F0000F1E02080F8141D7047B9
:1030100002E008C8121F08C1002AFAD170477047A1
:10302000002001E001C1121F002AFBD170470000FF
:103030002DE9FF4F89B09B460446002506E0252870
:103040000BD05A460B999047641C6D1C20780028C1
:10305000F5D10DB02846BDE8F08F0027B846012213
:10306000474900E0074314F8013F203B02FA03F010
:103070000842F7D120782E2819D114F8010F47F013
:1030800004072A280ED06FF02F022078A0F130011B
:1030900009290CD808EB880102EB410100EB01087B
:1030A000641CF2E70A98641C50F8048B0A9020789C
:1030B0000028CED0642808D0692806D075281ED0F4
:1030C0005A460B9990476D1C58E00A994FF00A092F
:1030D00001C90A91002802DA40422D2102E0390597
:1030E00004D52B218DF82010012103E0F90704D02D
:1030F0002021F7E78A4608AE0DE00021FAE70A9999
:103100004FF00A0901C90A91F7E74946FDF7BAF8F5
:10311000303106F8011D0028F7D1ADEB060000F1B3
:103120002009780701D44FF00108C84502DDA8EB5B
:10313000090000E000208046002706E008A85A4663
:10314000C05D0B9990476D1C7F1C5745F6DB04E072
:1031500030205A460B9990476D1CB8F10001A8F138
:103160000108F5DC05E016F8010B5A460B9990476B
:103170006D1CB9F10001A9F10109F4DC641C65E7DB
:10318000092801007CB5DDE90645CDE9004500F0E0
:1031900039F97CBDFFB50D4601788DF800104178F6
:1031A0008DF8041081788DF80810C1788DF80C1016
:1031B00001798DF8011041798DF8051081798DF82C
:1031C0000910C1798DF80D10017A8DF80210417A3D
:1031D0008DF80610817A8DF80A10C17A8DF80E10DC
:1031E000017B8DF80310417B8DF80710817B8DF8F2
:1031F0000B10C07B8DF80F001E4614461146684622
:10320000FDF7B7F86846FFF70DFA6846FFF7F1F9E2
:103210006846FFF7F9F804F110016846FDF7A9F8D0
:103220006846FFF7FFF96846FFF7E3F96846FFF7DE
:10323000EBF804F120016846FDF79BF86846FFF7BC
:10324000F1F96846FFF7D5F96846FFF7DDF804F1B4
:1032500030016846FDF78DF86846FFF7E3F96846E8
:10326000FFF7C7F96846FFF7CFF804F14001684659
:10327000FDF77FF86846FFF7D5F96846FFF7B9F91B
:103280006846FFF7C1F804F150016846FDF771F890
:103290006846FFF7C7F96846FFF7ABF96846FFF7DE
:1032A000B3F804F160016846FDF763F86846FFF77C
:1032B000B9F96846FFF79DF96846FFF7A5F804F1EC
:1032C00070016846FDF755F86846FFF7ABF96846A8
:1032D000FFF78FF96846FFF797F804F18001684619
:1032E000FDF747F86846FFF79DF96846FFF781F953
:1032F0006846FFF789F804F190016846FDF739F850
:1033000004F1A007802E75D06846FFF78BF9684658
:10331000FFF76FF96846FFF777F839466846FDF71B
:1033200028F86846FFF77EF96846FFF762F96846B5
:10333000FFF76AF804F1B0016846FDF71AF8203784
:10334000C02E57D06846FFF76DF96846FFF751F970
:103350006846FFF759F839466846FDF70AF86846A7
:10336000FFF760F96846FFF744F96846FFF74CF845
:1033700004F1D0016846FCF7FCFF6846FFF752F9FC
:103380006846FFF736F904F1E0016846FCF7F1FF03
:103390009DF8000028709DF8040068709DF80800F2
:1033A000A8709DF80C00E8709DF8010028719DF848
:1033B000050068719DF80900A8719DF80D00E8717D
:1033C0009DF8020028729DF8060068729DF80A00B8
:1033D000A8729DF80E00E8729DF8030028739DF80E
:1033E000070068739DF80B00A8739DF80F00E87341
:1033F000FFBDFFE76846FFF715F96846FFF7F9F8E4
:103400003946C2E72DE9F04389B01646DDE9109749
:10341000002598460C46B04204D00A460146304684
:10342000FCF7FFFE102239466846FCF7FAFEA4F1CD
:103430001007102C10D811E04B46424604A96846EC
:10344000FFF7A8FE7119102204A801F063FC1021F7
:10345000684600F079F81035BD42EDD34B46424640
:1034600004A96846FFF796FE621B711904A801F0D3
:1034700051FC09B0BDE8F083F0B58FB015460E469B
:10348000044604273C2228496846FCF7CAFE802DE2
:103490001AD0C02D1BD0B5F5807F43D10E21082551
:1034A0005FF0000004EB80021368D2781BBA23F0AF
:1034B000FF03134346F82030401CA842F2DB2C46A1
:1034C000491C17FB01F72BE00A210425E8E70C2132
:1034D0000625E5E794FBF5F106EB840005FB1141B9
:1034E00050F8040C41B1062D13DD94FBF5F105FBFA
:1034F000114104290BD00CE04FEA3060FFF716F9B8
:10350000611E91FBF5F15DF82110484001E0FFF7E5
:103510000DF9611B56F82110414046F82410641C37
:10352000A742D7DC0FB0F0BD6C55000838B5044693
:103530008DF800000223012269460248FEF78AFD49
:10354000204638BD4C0400200F22C1F1100108E0D4
:10355000835C5B1C13F0FF03835404D1914202D0BF
:10356000521E9142F4DD704708B5FDF7CFFBFFF71F
:1035700005F9FEF719FEFEF7C9FDFEF7FBFEFEF7A3
:1035800019FFFEF757FE5B4859494FF4E136002515
:103590000160C0E901650C24C560C0E9045485617F
:1035A000C561FEF765FB08B172B6FEE751485249A6
:1035B00044300160C0E90165C560C0E9045485611B
:1035C000C561FEF755FB08B172B6FEE7FEF768FE6F
:1035D000FEF79CFE4748D838FDF7C2FF45489038B3
:1035E000FDF7BEFF43484838FDF7BAFF434C60780B
:1035F000012807D120780090D4E90823404800F042
:1036000087F86570A078012808D1207800903C48A0
:10361000D4E90823643000F07BF8A570E078012835
:1036200008D1207800903648D4E90823C83000F04B
:103630006FF8E5702079012807D120780090D4E94F
:103640000823304800F064F825716079012808D11A
:10365000207800902B48D4E90823643000F058F813
:103660006571A079012808D1207800902548D4E917
:103670000823C83000F04CF8A571E079012807D183
:1036800020780090D4E908231F4800F041F8E57144
:10369000207A012808D1207800901B48D4E908231B
:1036A000643000F035F82572607A012808D120785E
:1036B00000901548D4E90823C83000F029F8657255
:1036C000A07A012807D120780090D4E908230F4878
:1036D00000F01EF8A572E07D012888D120780090C6
:1036E0000A48D4E90823643000F014FBE5757EE74E
:1036F000004C00404C04002000500040000000201E
:103700005C05002088060020B4070020E0080020A7
:103710002DE9F04FB1B00446FE4D3A9816464FF4ED
:103720008078A0B1012820D002282ED003283CD0D8
:1037300004284AD0052858D0062866D0072878D013
:10374000082873D0092872D00A2871D082E0F14885
:1037500030211038FCF77EFD2022EF492846FCF787
:1037600060FD4246ED49EE4872E0EA4830211038EB
:10377000FCF770FDE849202220312846FCF751FD76
:10378000E7484246E549203062E0E24830211038FF
:10379000FCF760FDE049202240312846FCF741FD5E
:1037A000DF484246DD49403052E0DA4830211038E7
:1037B000FCF750FDD849202260312846FCF731FD46
:1037C000D7484246D549603042E0D24830211038CF
:1037D000FCF740FDD049202280312846FCF721FD2E
:1037E000CF484246CD49803032E0CA4830211038B7
:1037F000FCF730FDC8492022A0312846FCF711FD16
:10380000C7484246C549A03022E0C248302110389E
:10381000FCF720FDC0492022C0312846FCF701FDFD
:10382000BF484246BD49C03012E002E01CE02AE039
:1038300039E0B84830211038FCF70CFDB649202299
:10384000E0312846FCF7EDFCB5484246B349E0308C
:10385000FFF712FE2078DFF8CC9240F2CF7AA9F57C
:10386000D87701282FD086E0AA4830211038FCF7FD
:10387000F1FC2022AC492846FCF7D3FCA94842467B
:10388000A6496038E4E7A34830211038FCF7E2FC91
:10389000A549202220312846FCF7C3FCA148424616
:1038A0009E494038D4E79B4830211038FCF7D2FCC1
:1038B0009D49202240312846FCF7B3FC99484246F6
:1038C00096492038C4E799490878401C08700020C0
:1038D00010A9221892F839200A54401CC0B20E28B0
:1038E000F7D3002002A9221852780A54401CC0B213
:1038F0003828F8D3DDE910539B462A46084601F0E4
:1039000095F984480E2210A92E30FCF7AEFC18B1B0
:1039100087A0FFF75DFB2EE08B490878401C0870FC
:10392000C7E9065BD7E90423711B85EA02058BEA28
:10393000030005431BD001F2E731514517D238226D
:1039400002A914A8FCF76DFC744B22AA382114A814
:10395000CDE90089FFF716FC4FF6FF73382222A944
:103960007A48FEF777FB7A490878401C0870D7E957
:103970000601C7E904012078022853D17549087867
:10398000401C0870002006A92218127C0A54401C12
:10399000C0B20E28F8D3002002A9221852780A5487
:1039A000401CC0B20F28F8D3DDE906539B462A46D7
:1039B000084601F03BF957480E2206A92E30FCF7C5
:1039C00054FC78BB64490878401C0870C7E90A5B5E
:1039D000D7E90823711B85EA02058BEA030005433A
:1039E0001CD001F2E731514518D202AD95E80F0025
:1039F0000AAD85E80F00494B0EAA0F210AA8CDE9B0
:103A00000089FFF7BFFB4FF6FF730F220EA94F4847
:103A1000FEF720FB51490878401C0870D7E90A01DD
:103A2000C7E90801207803284CD14D490878401C8B
:103A30000870002002A92218527E0A54401CC0B20D
:103A40000E28F8D3002006A9221852780A54401CE8
:103A5000C0B21828F8D3DDE902539B462A4608462F
:103A600001F0E4F82B480E2202A92E30FCF7FDFBF2
:103A700040BB3C490878401C0870C7E90E5BD7E999
:103A80000C124D408BEA0200054317D0182206A9FC
:103A90000CA8FCF7C6FB214B12AA18210CA8CDE9F3
:103AA0000089FFF76FFB4FF6FF73182212A9274812
:103AB000FEF7D0FA2C490878401C0870D7E90E01AF
:103AC000C7E90C012078042852D128490878401C05
:103AD0000870002002A92218127D0A54401CC0B2AE
:103AE0000E28F8D3002006A9221852780A54401C48
:103AF000C0B21328F8D3DDE902539B462A46084694
:103B000001F094F803480E2202A92E30FCF7ADFB19
:103B100070BB2EE0A80F0020A8550008A80E0020BA
:103B200090000020F0010020A85600080B000020A3
:103B30005369676E6174757265313A4E4F54205007
:103B40006173730D0A0000000C00002018050020AE
:103B50000D0000200E0000200F00002010000020AB
:103B6000110000201200002013000020140000208B
:103B70002EE063490878401C0870C7E9125BD7E95A
:103B80001023711B85EA02058BEA030005431BD055
:103B900001F2E731514517D2142206A90BA8FCF710
:103BA00040FB584B10AA13210BA8CDE90089FFF761
:103BB000E9FA4FF6FF73132210A95348FEF74AFAA9
:103BC00052490878401C0870D7E91201C7E9100172
:103BD0002078052845D1002008A92218D27D0A5452
:103BE000401CC0B20E28F8D3002002A92218527837
:103BF0000A54401CC0B21628F8D3DDE908539B468E
:103C00002A46084601F012F80E2208A94048FCF79F
:103C10002CFB30BBC7E9025BD7E90023711B85EAA7
:103C200002058BEA0300054317D001F2E731514545
:103C300013D2182202A912A8FCF7F3FA314B0CAAEE
:103C4000162112A8CDE90089FFF79CFA4FF6FF7301
:103C500016220CA92C48FEF7FDF9D7E90201C7E9A5
:103C600000012078062847D100202CA9221892F8BC
:103C700038200A54401CC0B20E28F7D300201EA9D9
:103C8000221852780A54401CC0B23728F8D3DDE914
:103C90002C4522462B46084600F0C8FF0E222CA9D0
:103CA0001B48FCF7E2FA002826D1C7E90245D7E90C
:103CB0000012301B84EA010485EA02052C4317D068
:103CC00000F2E730504513D238221EA910A8FCF7A5
:103CD000A8FA0C4B02AA372110A8CDE90089FFF7FA
:103CE00051FA4FF6FF73372202A90748FEF7B2F9DF
:103CF000D7E90201C7E9000131B0BDE8F08F00004B
:103D000015000020A80E0020180500201600002035
:103D1000D60F00202DE9F04FB1B00646FF4F3A987C
:103D200014461D464FF4807BA0B1012820D0022804
:103D30002ED003283CD004284AD0052858D0062885
:103D400066D0072878D0082873D0092872D00A28AE
:103D500071D082E0F14830211038FCF77BFA202244
:103D6000EF493846FCF75DFA5A46EE49EE4872E0F4
:103D7000EA4830211038FCF76DFAE9492022203159
:103D80003846FCF74EFAE8485A46E649203062E0E9
:103D9000E24830211038FCF75DFAE1492022403139
:103DA0003846FCF73EFAE0485A46DE49403052E0D9
:103DB000DA4830211038FCF74DFAD9492022603119
:103DC0003846FCF72EFAD8485A46D649603042E0C9
:103DD000D24830211038FCF73DFAD14920228031F9
:103DE0003846FCF71EFAD0485A46CE49803032E0B9
:103DF000CA4830211038FCF72DFAC9492022A031D9
:103E00003846FCF70EFAC8485A46C649A03022E0A8
:103E1000C24830211038FCF71DFAC1492022C031B8
:103E20003846FCF7FEF9C0485A46BE49C03012E099
:103E300002E01FE02CE03BE0B84830211038FCF7EE
:103E400009FAB7492022E0313846FCF7EAF9B648CA
:103E50005A46B449E030FFF70FFB7078DFF8BCA298
:103E60000A270AF12E0A4FF05A084FF00D0965286B
:103E70002ED069E0A94830211038FCF7EBF9202258
:103E8000AA493846FCF7CDF95A46A649A848E2E7C0
:103E9000A24830211038FCF7DDF9A4492022203156
:103EA0003846FCF7BEF9A2485A469E492030D2E770
:103EB0009A4830211038FCF7CDF99C492022403136
:103EC0003846FCF7AEF99A485A4696494030C2E760
:103ED0009248112210383146C0E902458DF8088019
:103EE00065208DF8090010A8FCF79BF990488D4BD0
:103EF0006030CDE900B00BAA112110A8FFF782FABB
:103F000022462B460BA800F0CBFE00200BAA02A9EC
:103F1000135C01EB000C401C8CF802301128F7DB1D
:103F20000020524601EB000C135C401C8CF813304F
:103F30000E28F7DB8DF829908DF82A704FF6FF7365
:103F400023227C48FEF786F8707866283DD17348B6
:103F5000744B103809AAC0E902458DF80880662024
:103F60008DF8090030680C9070680D90307A8DF8EB
:103F700038006F4809216030CDE900B00CA8FFF788
:103F800041FA22462B4609A800F08AFE002009AA21
:103F900002A9135C01EB000C401C8CF802300928CC
:103FA000F7DB0020524601EB000C135C401C8CF840
:103FB0000B300E28F7DB8DF821908DF822704FF62C
:103FC000FF731B225B48FEF745F8707867283ED1E7
:103FD0005248544B103809AAC0E902458DF80880B0
:103FE00067208DF8090030680B90B088ADF830007C
:103FF000B0798DF832004E4807216030CDE900B02D
:104000000BA8FFF7FFF922462B4609A800F048FE4F
:10401000002009AA02A9135C01EB000C401C8CF8DB
:1040200002300728F7DB0020524601EB000C135C3E
:10403000401C8CF809300E28F7DB8DF81F908DF8A6
:1040400020704FF6FF7319223A48FEF703F8707894
:1040500068283ED13148334B103809AAC0E90245DF
:104060008DF8088068208DF8090030680B90B088C2
:10407000ADF83000B0798DF832002D48072160305E
:10408000CDE900B00BA8FFF7BDF922462B4609A8E1
:1040900000F006FE002009AA02A9135C01EB000C47
:1040A000401C8CF802300728F7DB0020524601EB59
:1040B000000C135C401C8CF809300E28F7DB8DF8DF
:1040C0001F908DF820704FF6FF7319221948FDF7E5
:1040D000C1FF707869284CD11048124B103809AADA
:1040E000C0E902458DF8088069208DF80900306824
:1040F0000C9070680D90307A8DF838000C480921CA
:104100006030CDE900B00CA8FFF77CF922462B46C1
:1041100009A800F0C5FD002009AA0DE0E810002064
:1041200008570008E80F0020000200200858000887
:1041300000030020D404002002A9135C01EB000C52
:10414000401C8CF802300928F7DB0020524601EBB6
:10415000000C135C401C8CF80B300E28F7DB8DF83C
:1041600021908DF822704FF6FF731B22FE48FDF759
:1041700071FF70786A283DD1FC48FC4B09AAC0E960
:1041800002458DF808806A208DF8090030680B9090
:10419000B088ADF83000B0798DF83200F448F03BCB
:1041A000CDE900B007210BA8FFF72CF922462B46DA
:1041B00009A800F075FD002009AA02A9135C01EB13
:1041C000000C401C8CF802300728F7DB0020524618
:1041D00001EB000C135C401C8CF809300E28F7DB57
:1041E0008DF81F908DF820704FF6FF731922DE486E
:1041F000FDF730FF70786B283DD1DC48DB4B09AA16
:10420000C0E902458DF808806B208DF80900306800
:104210000B90B088ADF83000B0798DF83200D448FA
:10422000F03BCDE900B007210BA8FFF7EBF82246E1
:104230002B4609A800F034FD002009AA02A9135C4E
:1042400001EB000C401C8CF802300728F7DB002043
:10425000524601EB000C135C401C8CF809300E2810
:10426000F7DB8DF81F908DF820704FF6FF73192241
:10427000BD48FDF7EFFE70786C283DD1BB48BB4BC5
:1042800009AAC0E902458DF808806C208DF8090064
:1042900030680B90B088ADF83000B0798DF83200FE
:1042A000B348F03BCDE900B007210BA8FFF7AAF80F
:1042B00022462B4609A800F0F3FC002009AA02A917
:1042C000135C01EB000C401C8CF802300728F7DB74
:1042D0000020524601EB000C135C401C8CF80930A6
:1042E0000E28F7DB8DF81F908DF820704FF6FF73C6
:1042F00019229D48FDF7AEFE70786D283DD19B4890
:104300009B499A4BC0E902458DF808806D208DF8D5
:10431000090030680B90B088ADF83000B079CDE975
:1043200000B18DF83200F03B09AA07210BA8FFF776
:1043300069F822462B4609A800F0B2FC002009AA21
:1043400002A9135C01EB000C401C8CF8023007281A
:10435000F7DB0020524601EB000C135C401C8CF88C
:1043600009300E28F7DB8DF81F908DF820704FF67E
:10437000FF7319227C48FDF76DFE70786E283DD1E1
:104380007A487A4B09AAC0E902458DF808806E2068
:104390008DF8090030680B90B088ADF83000B07926
:1043A0008DF832007248F03BCDE900B007210BA830
:1043B000FFF728F822462B4609A800F071FC0020E0
:1043C00009AA02A9135C01EB000C401C8CF8023016
:1043D0000728F7DB0020524601EB000C135C401C61
:1043E0008CF809300E28F7DB8DF81F908DF82070BF
:1043F0004FF6FF7319225C48FDF72CFE70786F288A
:104400003DD15A48594B09AAC0E902458DF80880A8
:104410006F208DF8090030680B90B088ADF830003F
:10442000B0798DF832005248F03BCDE900B0072159
:104430000BA8FEF7E7FF22462B4609A800F030FC48
:10444000002009AA02A9135C01EB000C401C8CF8A7
:1044500002300728F7DB0020524601EB000C135C0A
:10446000401C8CF809300E28F7DB8DF81F908DF872
:1044700020704FF6FF7319223B48FDF7EBFD707873
:1044800070283DD13948394B09AAC0E902458DF859
:10449000088070208DF8090030680B90B088ADF866
:1044A0003000B0798DF832003148F03BCDE900B0F2
:1044B00007210BA8FEF7A6FF22462B4609A800F00D
:1044C000EFFB002009AA02A9135C01EB000C401CC1
:1044D0008CF802300728F7DB0020524601EB000C75
:1044E000135C401C8CF809300E28F7DB8DF81F9008
:1044F0008DF820704FF6FF7319221B48FDF7AAFDB7
:104500007078712845D11948184B09AAC0E90245AD
:104510008DF8088071208DF8090030680B90B08804
:10452000ADF83000B0798DF832001148F03BCDE99C
:1045300000B007210BA8FEF765FF22462B4609A80D
:1045400000F0AEFB002009AA02A9135C01EB000CED
:10455000401C8CF802300728F7DB0020524601EBA4
:10456000000C135C06E00000D4040020D8100020EA
:1045700060030020401C8CF809300E28EFDB8DF81A
:104580001F908DF820704FF6FF731922FC48FDF73D
:1045900061FD707872283DD1FA48FA4B09AAC0E94A
:1045A00002458DF8088072208DF8090030680B9064
:1045B000B088ADF83000B0798DF83200F248F03BA9
:1045C000CDE900B007210BA8FEF71CFF22462B46C1
:1045D00009A800F065FB002009AA02A9135C01EB01
:1045E000000C401C8CF802300728F7DB00205246F4
:1045F00001EB000C135C401C8CF809300E28F7DB33
:104600008DF81F908DF820704FF6FF731922DC484B
:10461000FDF720FD707873283DD1DA48D94B09AAFF
:10462000C0E902458DF8088073208DF809003068D4
:104630000B90B088ADF83000B0798DF83200D248D8
:10464000F03BCDE900B007210BA8FEF7DBFE2246C8
:104650002B4609A800F024FB002009AA02A9135C3C
:1046600001EB000C401C8CF802300728F7DB00201F
:10467000524601EB000C135C401C8CF809300E28EC
:10468000F7DB8DF81F908DF820704FF6FF7319221D
:10469000BB48FDF7DFFC707874283ED1B948BB49B0
:1046A0000F22C0E902450888401C08808DF8088068
:1046B00074208DF8090031460FA8FBF7B2FDB2480F
:1046C000B04BCDE900B0F03B0BAA0F210FA8FEF7CD
:1046D00099FE22462B460BA800F0E2FA00200BAA16
:1046E00002A9135C01EB000C401C8CF802300F286F
:1046F000F7DB0020524601EB000C135C401C8CF8E9
:1047000011300E28F7DB8DF827908DF828704FF6C2
:10471000FF7321229A48FDF79DFC707875283AD1E5
:10472000984816223146C0E902458DF80880752068
:104730008DF8090012A8FBF774FD9348914BCDE961
:1047400000B0F03B0CAA162112A8FEF75BFE224631
:104750002B460CA800F0A4FA00200CAA02A9135CB6
:1047600001EB000C401C8CF802301628F7DB00200F
:10477000524601EB000C135C401C8CF818300E28DC
:10478000F7DB8DF82E908DF82F704FF6FF732822EF
:104790007B48FDF75FFC7078762839D17948794BF2
:1047A00009AAC0E902458DF8088076208DF8090035
:1047B00030680B9070680C907348F03BCDE900B006
:1047C00008210BA8FEF71EFE22462B4609A800F082
:1047D00067FA002009AA02A9135C01EB000C401C37
:1047E0008CF802300828F7DB0020524601EB000C61
:1047F000135C401C8CF80A300E28F7DB8DF82090F3
:104800008DF821704FF6FF731A225D48FDF722FCE8
:10481000707877283AD15B4837223146C0E90245A3
:104820008DF8088077208DF8090023A8FBF7F9FCA4
:104830005548544BCDE900B0F03B15AA372123A8C9
:10484000FEF7E0FD22462B4615A800F029FA0020CD
:1048500015AA02A9135C01EB000C401C8CF8023075
:104860003728F7DB0020524601EB000C135C401C9C
:104870008CF839300E28F7DB8DF84F908DF850709A
:104880004FF6FF7349223E48FDF7E4FB7078782825
:1048900035D13C483B4B09AAC0E902458DF8088058
:1048A00078208DF8090030680B9070680C903648BD
:1048B000F03BCDE900B008210BA8FEF7A3FD22468E
:1048C0002B4609A800F0ECF9002009AA02A9135C04
:1048D0000C18401CA3700828F9DB002052460C1865
:1048E000135C401CA3720E28F9DB8DF820908DF824
:1048F00021704FF6FF731A222148FDF7ABFB707849
:104900007E24C8281BD18DF800808DF8014001203D
:104910008DF80200B0798DF803008DF804908DF8C1
:1049200005704FF6FF73062269461548FDF792FBA6
:1049300017489DF80310017016A0FEF749FB707828
:10494000C92819D18DF800808DF8014003208DF819
:104950000200C9208DF803008DF804908DF80570D1
:104960004FF6FF73062269460548FDF773FB0EA05C
:10497000FEF72EFBFEF706FB31B0BDE8F08F00001E
:10498000D4040020D8100020600300201A0000206A
:104990000000002044796E616D6963206B65793A8F
:1049A00025640D0A00000000CFFABBD9B4FAC2EBAF
:1049B000000000002DE9F04FC8B083688846479397
:1049C000C168469104694594426944929646826959
:1049D0004392C5694295A946056A4195466A409643
:1049E000B34600264FEA0D0758F826C047F826C000
:1049F000761C102EF8DB102607EB860A5AF8087C86
:104A00004FEA774C8CEAF74C8CEA972C5AF83C7CAE
:104A10004FEAF71888EAB74888EAD707BC445AF83B
:104A20001C8C5AF8407C4744BC444DF826C0761C88
:104A30006F46402EE0DB00264FEAB21787EAF227E6
:104A400087EA726C02EA090725EA020887EA080782
:104A5000BC44204F57F8268008EB0B07BC445DF898
:104A60002670AB460CEB070A4FEAB30787EA7337A9
:104A700087EAB35C81EA04074D4601EA04089146DF
:104A80001F400EEB0A02A64687EA08070C46BC4404
:104A90001946761C0AEB0C03402ECDDB479E3344AF
:104AA0008360469B1944C160459921440161449942
:104AB0007144416143991144816142994944C16102
:104AC00041992944016240995944416248B0BDE886
:104AD000F08F0000685800082DE9F0410446008876
:104AE00092B0C0F3C500C0F1770000F03F0680200F
:104AF0000D468DF8000004F108074721E8460DF146
:104B00000100761CFBF7A6FB08EB06002178C171BB
:104B1000218806F10802090A81712168090C417196
:104B20002168090E01712179C170A188090A81707B
:104B30006168090C41706068010E08F8061069464A
:104B4000204600F033F8F8782870B87868707878E4
:104B5000A8703878E870F8792871B879687112B05F
:104B6000BDE8F08100210160416008498160084989
:104B7000C1600849016108494161084981610849EA
:104B8000C1610849016208494162704767E6096AE4
:104B900085AE67BB72F36E3C3AF54FA57F520E515E
:104BA0008C68059BABD9831F19CDE05B2DE9F041E3
:104BB000044600681546884600EBC50190B02160A8
:104BC000814202D26168491C6160C0F3C50727E0D9
:104BD000C7F14006B54200D22E46E01932464146A2
:104BE0002830FBF71EFB3744AD1BB044402F17D1D4
:104BF00004F1280300206E4603EB800106EB8002DF
:104C0000CF7817708F7857704F7897700978401C5D
:104C1000D1701028F0DB31462046FFF7CBFE00278D
:104C2000002DD5D110B0BDE8F081000030B59DB0A9
:104C30000546CDE91A23194C00221AA8815CA1541B
:104C4000521C082AFADB6846FFF78CFF1349202222
:104C500020396846FFF7AAFF042229466846FFF775
:104C6000A5FF08220D496846FFF7A0FF0B496846DB
:104C70000831FFF731FF094900200E31225C0A5448
:104C8000401C0828FADB002022180B18127A401C5E
:104C90001A720628F8DB1DB030BD0000C80F0020D6
:104CA00030B59DB00546CDE91A23194C00221AA84B
:104CB000815CA154521C082AFADB6846FFF752FFB8
:104CC0001349202220396846FFF770FF0422294645
:104CD0006846FFF76BFF08220D496846FFF766FF3D
:104CE0000B4968460831FFF7F7FE094900200E31ED
:104CF000225C0A54401C0828FADB002022180B18FA
:104D0000127A401C1A720628F8DB1DB030BD000074
:104D10000811002030B5002304E0CC5CC55C6C4079
:104D2000CC545B1C9342F8D330BD5A7441AB82F033
:104D3000561716335E9A8B15C86519CA38040000D9
:104D4000000000DBF1FCC817940D0A0006101600E5
:104D50000610160000000000000000010203040617
:104D6000070809000000000102030400637C777B50
:104D7000F26B6FC53001672BFED7AB76CA82C97D57
:104D8000FA5947F0ADD4A2AF9CA472C0B7FD9326E8
:104D9000363FF7CC34A5E5F171D8311504C723C3EC
:104DA0001896059A071280E2EB27B27509832C1A30
:104DB0001B6E5AA0523BD6B329E32F8453D100ED8A
:104DC00020FCB15B6ACBBE394A4C58CFD0EFAAFB6E
:104DD000434D338545F9027F503C9FA851A3408F36
:104DE000929D38F5BCB6DA2110FFF3D2CD0C13EC4E
:104DF0005F974417C4A77E3D645D197360814FDCE3
:104E0000222A908846EEB814DE5E0BDBE0323A0AC6
:104E10004906245CC2D3AC629195E479E7C8376D4A
:104E20008DD54EA96C56F4EA657AAE08BA78252E6F
:104E30001CA6B4C6E8DD741F4BBD8B8A703EB566F8
:104E40004803F60E613557B986C11D9EE1F89811E9
:104E500069D98E949B1E87E9CE5528DF8CA1890DD8
:104E6000BFE6426841992D0FB054BB1652096AD56E
:104E70003036A538BF40A39E81F3D7FB7CE339824F
:104E80009B2FFF87348E4344C4DEE9CB547B94329E
:104E9000A6C2233DEE4C950B42FAC34E082EA166E6
:104EA00028D924B2765BA2496D8BD12572F8F664BD
:104EB00086689816D4A45CCC5D65B6926C70485038
:104EC000FDEDB9DA5E154657A78D9D8490D8AB00ED
:104ED0008CBCD30AF7E45805B8B34506D02C1E8F16
:104EE000CA3F0F02C1AFBD0301138A6B3A91114152
:104EF0004F67DCEA97F2CFCEF0B4E67396AC74223B
:104F0000E7AD3585E2F937E81C75DF6E47F11A71B8
:104F10001D29C5896FB7620EAA18BE1BFC563E4BF1
:104F2000C6D279209ADBC0FE78CD5AF41FDDA833B3
:104F30008807C731B11210592780EC5F60517FA9F3
:104F400019B54A0D2DE57A9F93C99CEFA0E03B4D22
:104F5000AE2AF5B0C8EBBB3C83539961172B047E96
:104F6000BA77D626E169146355210C7D0000000054
:104F700000000203090B0D0E040612161A1C06058A
:104F80001B1D1712080C242C34380A0F2D27393614
:104F90000C0A363A2E240E093F31232A101848589D
:104FA0006870121B4153657E141E5A4E726C161D9A
:104FB00053457F6218146C745C481A17657F51461C
:104FC0001C127E6246541E1177694B5A203090B0F5
:104FD000D0E0223399BBDDEE243682A6CAFC26350A
:104FE0008BADC7F2283CB49CE4D82A3FBD97E9D6E4
:104FF0002C3AA68AFEC42E39AF81F3CA3028D8E8ED
:10500000B890322BD1E3B59E342ECAFEA28C362D39
:10501000C3F5AF823824FCC48CA83A27F5CF81A60B
:105020003C22EED296B43E21E7D99BBA40603B7B4E
:10503000BBDB42633270B6D54466296DA1C74665B5
:105040002066ACC9486C1F578FE34A6F165C82ED2F
:105050004C6A0D4195FF4E69044A98F150787323CC
:10506000D3AB527B7A28DEA5547E6135C9B7567D15
:10507000683EC4B95874570FE7935A775E04EA9DA7
:105080005C724519FD8F5E714C12F0816050ABCBA4
:105090006B3B6253A2C066356456B9DD7127665515
:1050A000B0D67C29685C8FE75F036A5F86EC520D9F
:1050B0006C5A9DF1451F6E5994FA48117048E3935C
:1050C000034B724BEA980E45744EF1851957764D95
:1050D000F88E14597844C7BF37737A47CEB43A7DF7
:1050E0007C42D5A92D6F7E41DCA2206180C076F67E
:1050F0006DAD82C37FFD60A384C664E077B186C5D1
:105100006DEB7ABF88CC52DA59958ACF5BD1549B2C
:105110008CCA40CC43898EC949C74E8790D83EAED1
:1051200005DD92DB37A508D394DE2CB81FC196DDD0
:1051300025B312CF98D41A8231E59AD713893CEB64
:105140009CD208942BF99ED1019F26F7A0F0E64649
:10515000BD4DA2F3EF4DB043A4F6F450A751A6F510
:10516000FD5BAA5FA8FCC26A8975AAFFCB61847B3C
:10517000ACFAD07C9369AEF9D9779E67B0E8AE1EE1
:10518000D53DB2EBA715D833B4EEBC08CF21B6EDB0
:10519000B503C22FB8E48A32E105BAE78339EC0BD4
:1051A000BCE29824FB19BEE1912FF617C0A04D8DEB
:1051B000D676C2A34486DB78C4A65F9BCC6AC6A51C
:1051C0005690C164C8AC69A1E24ECAAF60AAEF4074
:1051D000CCAA7BB7F852CEA972BCF55CD0B805D585
:1051E000BE06D2BB0CDEB308D4BE17C3A41AD6BD0C
:1051F0001EC8A914D8B421F98A3EDAB728F287303C
:10520000DCB233EF9022DEB13AE49D2CE090DD3D3C
:105210000696E293D4360B98E496CF2B1C8AE6953B
:10522000C6201184E89CF91132AEEA9FF01A3FA023
:10523000EC9AEB0728B2EE99E20C25BCF088956554
:105240006EE6F28B9C6E63E8F48E877374FAF68DCB
:105250008E7879F4F884B1495ADEFA87B84257D08B
:10526000FC82A35F40C2FE81AA544DCC1B9BECF78D
:10527000DA411998E5FCD74F1F9DFEE1C05D1D9EE8
:10528000F7EACD531397C8DBEE791194C1D0E377D9
:105290001791DACDF4651592D3C6F96B0B83A4AFE1
:1052A000B2310980ADA4BF3F0F85B6B9A82D0D86D8
:1052B000BFB2A523038F80838609018C89888B0761
:1052C000078992959C15058A9B9E911B3BAB7C4759
:1052D0000AA139A8754C07AF3FAD6E5110BD3DAE68
:1052E000675A1DB333A7586B3E9931A45160339769
:1052F00037A14A7D248535A24376298B2BB3341FF1
:1053000062D129B03D146FDF2FB5260978CD2DB6B7
:105310002F0275C323BF103356E921BC19385BE750
:1053200027B902254CF525BA0B2E41FB5BFBD78C28
:10533000619A59F8DE876C945FFDC59A7B865DFEA5
:10534000CC91768853F7F3A055A251F4FAAB58AC40
:1053500057F1E1B64FBE55F2E8BD42B04BE39FD4E2
:1053600009EA49E096DF04E44FE58DC213F64DE605
:1053700084C91EF843EFBBF83DD241ECB2F330DCF8
:1053800047E9A9EE27CE45EAA0E52AC07BCB473CFA
:10539000B17A79C84E37BC747FCD552AAB667DCEC5
:1053A0005C21A66873C76310854271C46A1B884C70
:1053B00077C171069F5E75C2780D92506BD30F64F2
:1053C000D90A69D0066FD4046FD51D72C3166DD685
:1053D0001479CE1863DF2B48ED3261DC2243E03CC8
:1053E00067D9395EF72E65DA3055FA209B5B9A0152
:1053F000B7EC9958930ABAE29F5D8817ADF09D5EAD
:10540000811CA0FE9357BE2D83D49154B7268EDA0B
:105410009751AC3B99C89552A53094C68B43D2594D
:10542000DF9C8940DB52D2928F45C04FC5808D46AC
:10543000C944C88E834FF675EBA4814CFF7EE6AA63
:105440008749E463F1B8854AED68FCB6BB6B0AB1E5
:10545000670CB96803BA6A02BF6D18A77D10BD6EEC
:1054600011AC701EB3672E9D5334B16427965E3A1B
:10547000B7613C8B4928B56235804426AB7342E95D
:105480000F7CA9704BE20272AF7550FF1560AD76CC
:1054900059F4186EA37F66C53B44A17C6FCE364A93
:1054A000A77974D32158A57A7DD82C56DB3BA17AF5
:1054B0000C37D938A8710139DF3DB36C162BDD3EAE
:1054C000BA671B25D3378556380FD1348C5D35012B
:1054D000D73197402213D5329E4B2F1DCB23E92283
:1054E0006447C920E0296949CF25FB347E5BCD267E
:1054F000F23F7355C32FCD0E507FC12CC4055D7193
:10550000C729DF184A63C52AD613476DFB0B31CA7A
:10551000DCD7F90838C1D1D9FF0D23DCC6CBFD0E8D
:105520002AD7CBC5F30715E6E8EFF1041CEDE5E15A
:10553000F70107F0F2F3F5020EFBFFFDEB13799292
:10554000B4A7E9107099B9A9EF156B84AEBBED163D
:10555000628FA3B5E31F5DBE809FE11C54B58D91A2
:10556000E7194FA89A83E51A46A3978D000000011A
:10557000000000020000000400000008000000100D
:105580000000002000000040000000800000001B20
:10559000000000360000006C000000D8000000ABE6
:1055A0000000004D0000009A4071B5E94071B5E976
:1055B0004071B5E94071B5E94071B5E94071B5E9AF
:1055C0004071B5E94071B5E94171B5E94171B5E99D
:1055D0004171B5E94171B5E94171B5E94171B5E98B
:1055E0004171B5E94171B5E94271B5E94271B5E979
:1055F0004271B5E94271B5E94271B5E94271B5E967
:105600004271B5E94271B5E94371B5E94371B5E954
:105610004371B5E94371B5E94371B5E94371B5E942
:105620004371B5E94371B5E94471B5E94471B5E930
:105630004471B5E94471B5E94471B5E94471B5E91E
:105640004471B5E94471B5E94571B5E94571B5E90C
:105650004571B5E94571B5E94571B5E94571B5E9FA
:105660004571B5E94571B5E94671B5E94671B5E9E8
:105670004671B5E94671B5E94671B5E94671B5E9D6
:105680004671B5E94671B5E94771B5E94771B5E9C4
:105690004771B5E94771B5E94771B5E94771B5E9B2
:1056A0004771B5E94771B5E94871B5E94871B5E9A0
:1056B0004871B5E94871B5E94871B5E94871B5E98E
:1056C0004871B5E94871B5E94971B5E94971B5E97C
:1056D0004971B5E94971B5E94971B5E94971B5E96A
:1056E0004971B5E94971B5E95071B5E95071B5E94C
:1056F0005071B5E95071B5E95071B5E95071B5E92E
:105700005071B5E95071B5E94071B5E94071B5E93D
:105710004071B5E94071B5E94071B5E94071B5E94D
:105720004071B5E94071B5E94171B5E94171B5E93B
:105730004171B5E94171B5E94171B5E94171B5E929
:105740004171B5E94171B5E94271B5E94271B5E917
:105750004271B5E94271B5E94271B5E94271B5E905
:105760004271B5E94271B5E94371B5E94371B5E9F3
:105770004371B5E94371B5E94371B5E94371B5E9E1
:105780004371B5E94371B5E94471B5E94471B5E9CF
:105790004471B5E94471B5E94471B5E94471B5E9BD
:1057A0004471B5E94471B5E94571B5E94571B5E9AB
:1057B0004571B5E94571B5E94571B5E94571B5E999
:1057C0004571B5E94571B5E94671B5E94671B5E987
:1057D0004671B5E94671B5E94671B5E94671B5E975
:1057E0004671B5E94671B5E94771B5E94771B5E963
:1057F0004771B5E94771B5E94771B5E94771B5E951
:105800004771B5E94771B5E94871B5E94871B5E93E
:105810004871B5E94871B5E94871B5E94871B5E92C
:105820004871B5E94871B5E94971B5E94971B5E91A
:105830004971B5E94971B5E94971B5E94971B5E908
:105840004971B5E94971B5E95071B5E95071B5E9EA
:105850005071B5E95071B5E95071B5E95071B5E9CC
:105860005071B5E95071B5E9982F8A42914437716A
:10587000CFFBC0B5A5DBB5E95BC25639F111F159D3
:10588000A4823F92D55E1CAB98AA07D8015B831215
:10589000BE853124C37D0C55745DBE72FEB1DE80C1
:1058A000A706DC9B74F19BC1C1699BE48647BEEFF0
:1058B000C69DC10FCCA10C246F2CE92DAA84744A7B
:1058C000DCA9B05CDA88F97652513E986DC631A8F1
:1058D000C82703B0C77F59BFF30BE0C64791A7D5D0
:1058E0005163CA0667292914850AB72738211B2E58
:1058F000FC6D2C4D130D385354730A65BB0A6A7640
:105900002EC9C281852C7292A1E8BFA24B661AA84B
:10591000708B4BC2A3516CC719E892D1240699D65B
:1059200085350EF470A06A1016C1A419086C371ED4
:105930004C774827B5BCB034B30C1C394AAAD84EB2
:105940004FCA9C5BF36F2E68EE828F746F63A578ED
:105950001478C8840802C78CFAFFBE90EB6C50A480
:10596000F7A3F9BEF27871C688590008000000203C
:105970007403000014030008045A00087403002094
:10598000B411000020300008021D000170044042E4
:105990000F0C12011062101900045224F4000100CF
:1059A000221D603DEB1015CA71BE2B73AEF0857DD4
:1059B00077811F352C073B6108D72D9810A3091458
:1059C000DFF46120021D6220021D6320021D64209D
:1059D000021D6520021D6620021D6720021D682031
:1059E000021D6920021D6A200411FFF0F1F2F3F498
:1059F000F5F6F7F8F9FAFBFCFDFEFF70056D702D6A
:045A0000350300006A
:040000050800018965
:00000001FF
